:100000000C942B010C945C010C945C010C945C012D
:100010000C945C010C945C010C945C010C945C01EC
:100020000C945C010C945C010C945C010C945C01DC
:100030000C945C010C945C010C945C010C945C01CC
:100040000C945C010C945C010C945C010C945C01BC
:100050000C945C010C945C010C945C010C943613C0
:100060000C945C010C94AA130C9480130C945C0106
:100070000C945C010C945C010C945C010C945C018C
:100080000C945C010C945C010C945C010C945C017C
:100090000C945C010C945C010C945C010C945C016C
:1000A0000C945C010C945C010C945C010C945C015C
:1000B0000C945C010C945C010C945C010C945C014C
:1000C0000C945C010C945C010C945C010C945C013C
:1000D0000C945C010C945C010C945C010C945C012C
:1000E0000C945C010C94A9010C94AF020C94E702EF
:1000F0000C9493010C94E4010C94C4010C94B4018D
:100100000C94D2010C944D020C94DA010C94E00191
:100110000C94BA010C94A1020C943E020C94B1010F
:100120000C94CC010C94FD130C948E010C94AD0135
:100130000C9408020C94E0130C94D6010C94BE01AC
:100140000C94A5010C94C8010C9434030000210008
:10015000240027002A002D00300033000101000098
:10016000040107010A0100002200250028002B00DD
:100170002E003100340002010000050108010B01CE
:1001800005050505070508080808020202020A0A13
:100190000808040404040101010101010101030331
:1001A000030303030303040707070C0C0C0C0C0CDC
:1001B0000C0C0202020206060606060606060B0BD9
:1001C0000B0B0B0B0B0B010210202008081020401A
:1001D000102040800201020108040201010204080B
:1001E0001020408080402010080402018004020199
:1001F00080402010080402010804020101020408E2
:1002000010204080010204081020408000000A0BEA
:1002100002090C0D0E080703040100000000000095
:1002200000000000000000000000000000000000CE
:10023000000000000000000012111000000000008B
:1002400000000000000000000000000000000000AE
:100250000000FD13E01311241FBECFEFD1E2DEBF7B
:10026000CDBF00E00CBF2DE0A8E9BAE001C01D92AF
:10027000A033B207E1F71AE0A0E0B2E0EAE1F1E36F
:1002800000E00BBF02C007900D92A839B107D9F763
:1002900011E0CAE2D1E000E006C021970109802FF9
:1002A000FE010E942B16C932D10780E00807A9F78A
:1002B0000E947C140C947B180C940000282F30E0D2
:1002C000F901E45FFD4F9491F901EA53FE4F449127
:1002D00020583E4FF9012491222309F435C0992377
:1002E00011F191509231F8F4E92FF0E08827E458A9
:1002F000FE4F8F4F0C942B16AD01B1018E01A5015D
:10030000A9019301B401BA01BE01C401C801CC0125
:10031000D201D6019301DA01E001E401809180006D
:100320008F7780938000E22FF0E0EE0FFF1FEA59F5
:10033000FE4FA591B4918FB7F894EC91611148C02C
:1003400040954E234C938FBF0895809180008F7D00
:10035000E8CF80918000877FE4CF84B58F7784BD1C
:10036000E2CF84B58F7DFBCF8091B0008F778093F3
:10037000B000D9CF8091B0008F7DF9CF80919000EF
:100380008F7780939000CFCF809190008F7DF9CFB1
:1003900080919000877FF5CF8091A0008F77809328
:1003A000A000C1CF8091A0008F7DF9CF8091A000E7
:1003B000877FF5CF809120018F7780932001B3CF85
:1003C000809120018F7DF9CF80912001877FF5CF2B
:1003D0004E2BB8CF863308F0865320917B00982FA0
:1003E0009870277F922B90937B0087708064809316
:1003F0007C0080917A00806480937A0080917A00FA
:1004000086FDFCCF80917800909179000895089541
:10041000AF92BF92CF92DF92EF92FF920F931F9312
:10042000CF93DF936C017B018B01040F151FEB0150
:100430005E01AE18BF08C017D10759F06991D60107
:10044000ED91FC910190F081E02DC6011995892B69
:1004500079F7C501DF91CF911F910F91FF90EF9038
:10046000DF90CF90BF90AF900895FC0144815581FB
:100470006081718185EA9AE00C940802FC01538D39
:10048000448D252F30E0842F90E0821B930B54176E
:1004900010F0CF96089501970895FC01918D828DFB
:1004A000981761F0A28DAE0FBF2FB11D5D968C9194
:1004B000928D9F5F9F73928F90E008958FEF9FEFD3
:1004C00008952FB7F8948091A10A9091A20AA09163
:1004D000A30AB091A40A2FBF8093AD0A9093AE0AED
:1004E000A093AF0AB093B00A85EA9AE00E944D0249
:1004F00097FF26C02FB7F8948091A10A9091A20A85
:10050000A091A30AB091A40A2FBF4091AD0A5091C7
:10051000AE0A6091AF0A7091B00A841B950BA60BCE
:10052000B70B4091A90A5091AA0A6091AB0A709149
:10053000AC0A84179507A607B707B0F28FEF9FEFB5
:100540000895FC01918D828D981731F0828DE80F0E
:10055000F11D858D90E008958FEF9FEF0895FC01C8
:10056000918D228D892F90E0805C9F4F821B910995
:100570008F739927089585EA9AE00E94AF0221E0DF
:10058000892B09F420E0822F0895FC01A48DA80F87
:10059000B92FB11DA35ABF4F2C91848D90E00196C5
:1005A0008F739927848FA689B7892C93A089B189E5
:1005B0008C91837080648C93938D848D981306C086
:1005C0000288F389E02D80818F7D80830895EF92EA
:1005D000FF920F931F93CF93DF93EC0181E0888FFD
:1005E0009B8D8C8D98131AC0E889F989808185FFCD
:1005F00015C09FB7F894EE89FF896083E889F9896F
:1006000080818370806480839FBF81E090E0DF9170
:10061000CF911F910F91FF90EF900895F62E0B8DC3
:1006200010E00F5F1F4F0F731127E02E8C8D8E117E
:100630000CC00FB607FCFACFE889F989808185FFE5
:10064000F5CFCE010E94C502F1CFEB8DEC0FFD2F4F
:10065000F11DE35AFF4FF0829FB7F8940B8FEA89A0
:10066000FB8980818062CFCFCF93DF93EC01888DAF
:100670008823B9F0AA89BB89E889F9898C9185FD1D
:1006800003C0808186FD0DC00FB607FCF7CF8C91AB
:1006900085FFF2CF808185FFEDCFCE010E94C5029C
:1006A000E9CFDF91CF91089580E090E0892B29F088
:1006B0000E94BB0281110E94000080E090E0892B23
:1006C00049F080E090E0892B29F00E940000811120
:1006D0000E94000080E090E0892B49F080E090E0EB
:1006E000892B29F00E94000081110E94000080E007
:1006F00090E0892B49F080E090E0892B29F00E945E
:10070000000081110C9400000895CF93DF93FC0149
:10071000268137812230310530F4EC0160E080859C
:100720000E945E011A86DF91CF910895CF93DF93E7
:10073000EC018E819F81029729F488850E94EA014D
:100740009C878B878B859C85DF91CF910895FC01D9
:1007500001900020E9F73197AF01481B590BBC010C
:1007600085EA9AE00C9408028F929F92AF92BF9212
:100770000F931F93CF93DF93CDB7DEB7A1970FB63B
:10078000F894DEBF0FBECDBF19A2423008F44AE094
:100790008E010F5D1F4F842E912CB12CA12CA50131
:1007A00094010E940916E62FB901CA01EA30F4F457
:1007B000E05DD801EE938D01232B242B252B79F7B7
:1007C00090E080E0109719F0CD010E94A703A19658
:1007D0000FB6F894DEBF0FBECDBFDF91CF911F9152
:1007E0000F91BF90AF909F908F900895E95CE1CFFB
:1007F000CF92DF92EF92FF92CF93DF936B017C0158
:100800006DE285EA9AE00E94E702EC01662777270D
:10081000CB016C197D098E099F094AE00E94B4033F
:100820008C0F9D1FDF91CF91FF90EF90DF90CF90C5
:100830000895CF93DF93BC01990F880B990B97FF15
:100840000CC00E94F803EC0188E192E00E94A7032B
:100850008C0F9D1FDF91CF9108954AE00E94B40351
:10086000F2CFCF93DF930E94A703EC0188E192E0DF
:100870000E94A7038C0F9D1FDF91CF910895CF9306
:10088000DF930E943502EC0188E192E00E94A70309
:100890008C0F9D1FDF91CF910895AF92BF92CF92A1
:1008A000DF92EF92FF920F931F93CF93DF93DC01C0
:1008B000CD90DC901197C114D10439F01496CD91EC
:1008C000DC918C017601209761F4DF91CF911F912B
:1008D0000F91FF90EF90DF90CF90BF90AF90089571
:1008E00075015701BFEFAB1ABB0AF7018081082ED3
:1008F000000C990B0E94ED15892B91F72197CC0DD7
:10090000DD1D8881082E000C990B0E94ED15892BA6
:1009100029F0CE15DF0510F02197F3CFAE014F5F20
:100920005F4F4E195F09D80115965C934E9314974B
:10093000CE14DF0420F4B701C6010E944918D80183
:10094000ED91FC91119714968D919C91E80FF91FF0
:100950001082BBCFCF93DF93FC01C081D181209760
:1009600061F08991882349F0082E000C990B0E94B0
:100970003918FE0131978083F4CFDF91CF9108952C
:10098000FC0124813581232B39F421E0FB01808196
:10099000882349F020E007C0808191810E945D1882
:1009A00021E0892BB9F7822F0895FC01248135813C
:1009B000FB014481558124173507E1F4FC01808156
:1009C0009181FB01608171810097D1F06115710502
:1009D000A1F4232BC1F0FC01808190E008C0232BFF
:1009E00091F0FB01808190E091958195910921E042
:1009F000892B09F020E0822F08950E945D18F7CF1F
:100A00006115710561F721E0F6CF0F931F93CF9326
:100A1000DF938C01EB01FC01808191810097E1F073
:100A20006881798161157105A9F0428153812C811A
:100A30003D814217530770F00E9466188C819D819A
:100A4000F801958384831D821C82DF91CF911F91D1
:100A50000F9108950E94CF1688819981F8019183A2
:100A600080838A819B81938382838C819D819583FE
:100A70008483198218821B821A82E5CFCF93DF9379
:100A8000EC0188819981009711F00E94CF1619829C
:100A900018821D821C821B821A82DF91CF910895D9
:100AA000FC0180819181009711F00C94CF1608957C
:100AB0000F931F93CF93DF93EC0188819981009767
:100AC00059F02A813B812617370730F081E0DF910A
:100AD000CF911F910F9108958B016F5F7F4F0E94FF
:100AE0005817009759F0998388831B830A832C81B8
:100AF0003D81232B59F7FC011082E8CF80E0E7CF3E
:100B0000EF92FF920F931F93CF93DF9361157105BF
:100B100041F480E0DF91CF911F910F91FF90EF9012
:100B2000089541155105B1F07B01EC010C811D8147
:100B3000040F151FB8010E945805882351F328811E
:100B400039818C819D81B701820F931F0E946618A5
:100B50001D830C8381E0DECFCF93DF93EC01FB019B
:100B600001900020E9F73197AF01461B570B0E9417
:100B70008005811103C0CE010E943E05CE01DF91A8
:100B8000CF910895CF93DF93EC01FB014481558110
:100B9000608171810E948005811103C0CE010E9495
:100BA0003E05CE01DF91CF910895EF92FF920F9312
:100BB0001F93CF93DF93EC017B018A01BA010E945E
:100BC000580581110BC0CE010E943E05CE01DF9178
:100BD000CF911F910F91FF90EF9008951D830C838B
:100BE000B701888199810E946618F0CFEF92FF9239
:100BF0000F931F93CF93DF93CDB7DEB762970FB6F6
:100C0000F894DEBF0FBECDBF8C01CB01F80111827D
:100C1000108213821282158214824AE09E012F5F95
:100C20003F4F7901B9010E94B315F70101900020EF
:100C3000E9F73197AF014E195F09B701C8010E946A
:100C4000D50562960FB6F894DEBF0FBECDBFDF911B
:100C5000CF911F910F91FF90EF900895CF93DF9365
:100C6000EC016115710571F0FB0101900020E9F7BD
:100C70003197AF01461B570B0E94D505CE01DF917E
:100C8000CF9108950E943E05F9CFCF93DF93EC01F9
:100C9000FB018617970749F0608171816115710525
:100CA00041F0448155810E94D505CE01DF91CF915D
:100CB00008950E943E05F9CFFC0111821082138233
:100CC0001282158214820C9445060F931F93CF93C2
:100CD000DF9300D000D0CDB7DEB7BC01CE010196C6
:100CE0000E945C06CE0101960E94AA046BE172E0AC
:100CF000CE0101960E94C00410E000E0811116C0F0
:100D00006FE172E0CE0101960E94C00401E010E0A4
:100D100081110CC065E272E0CE0101960E94C00410
:100D200003E010E0882311F002E010E0CE0101960C
:100D30000E945005C80126960FB6F894DEBF0FBE7C
:100D4000CDBFDF91CF911F910F9108958F929F9208
:100D5000AF92BF92CF92DF92EF92FF920F931F93C9
:100D6000CF93DF934C016B01C0919A0AD0919B0AFB
:100D700004EC1BE0F12CE12CEC16FD0624F5C80177
:100D8000845C9B405C01B401C8010E94D504045FEF
:100D90001F4F8823A1F0B601C5018653944F0E94CE
:100DA000450681E0DF91CF911F910F91FF90EF9069
:100DB000DF90CF90BF90AF909F908F9008959FEF5E
:100DC000E91AF90AD9CF80E0CE31D1055CF78CE081
:100DD0008C9F80018D9F100D1124B401C8018C538C
:100DE000944F0E944506B601C8018653944F0E9455
:100DF00045062196D0939B0AC0939A0AD2CFFC0154
:100E0000118210821382128215821482FB010190DA
:100E10000020E9F73197AF01461B570B0C94D5051D
:100E2000CF93DF93EC016130710571F06230710591
:100E300071F0672B79F46CE272E0CE010E94FF063C
:100E4000CE01DF91CF91089560E372E0F6CF66E3C3
:100E500072E0F3CF6DE372E0F0CFCF92DF92EF92CA
:100E6000FF920F931F93CF93DF938C016B017A0155
:100E7000E9016AE172E00E94FF06B601C8010E9422
:100E80004506F801F782E682D187C087128614866C
:100E90001386F2E0EF16F10458F5DD27FE01EA5360
:100EA000FE4F8491C058DE4FFE01C491CC2399F0CF
:100EB000D0E0CC0FDD1FFE01E45BFE4FA591B491A5
:100EC000FE01EA59FE4F259134919FB7F894EC91B9
:100ED000E82BEC939FBF60E0E8018885DF91CF911C
:100EE0001F910F91FF90EF90DF90CF900C945E01D7
:100EF000E2E0EE16F10429F5DD27FE01EA53FE4F8C
:100F00008491C058DE4FFE01C491CC23D1F0D0E0D3
:100F1000CC0FDD1FFE01E45BFE4F25913491FE01F5
:100F2000EA59FE4FA591B4914FB7F894E901988121
:100F3000E82FE095892F8E2388838C91E823EC930A
:100F40004FBFDF91CF911F910F91FF90EF90DF90F6
:100F5000CF900895AF92BF92CF92DF92EF92FF921F
:100F60000F931F93CF93DF935C016B017A01DB0139
:100F700014960D911C910417150720F48F2D7801FC
:100F8000042F182F6AE172E0C5010E94FF06F601E6
:100F9000C481D581EC16FD06C8F40C171D0708F4B2
:100FA000E801D601ED91FC911197EC0FFD1F108126
:100FB00010826D917C916E0D7F1DC5010E942E06E1
:100FC000F60180819181C80FD91F1883C501DF9177
:100FD000CF911F910F91FF90EF90DF90CF90BF9036
:100FE000AF900895AF92BF92CF92DF92EF92FF92AF
:100FF0000F931F93CF93DF937C018B01FB01A480A0
:10100000B580C080D180A114B10469F060E270E0C5
:10101000C6010E945218009731F0EC01CC19DD098D
:10102000CF3FDC07F1F4F701D182C082F801828161
:101030009381F70193838283B582A482F8011182A0
:1010400010821382128215821482C701DF91CF9120
:101050001F910F91FF90EF90DF90CF90BF90AF90D6
:1010600008956AE172E0C7010E94FF06F8018481D9
:101070009581009751F38C179D0708F4EC01F80156
:1010800060817181FB01EC0FFD1FD0801082C701D0
:101090000E942E06F80180819181C80FD91FD88245
:1010A000D4CFBF92CF92DF92EF92FF920F931F9314
:1010B000CF93DF93CDB7DEB762970FB6F894DEBF5C
:1010C0000FBECDBF8C010E944D04F8018481958133
:1010D000892BA1F480E592E00E94310462960FB65C
:1010E000F894DEBF0FBECDBFDF91CF911F910F915E
:1010F000FF90EF90DF90CF90BF900895B801CE01A0
:1011000001960E945C06BE016F5F7F4FCE010D9677
:101110000E94F207CE0101960E94500502E41BE0F6
:10112000F12CE12C8091980A9091990AE816F90621
:101130000CF09FC06801B801CE0101960E945C06C8
:10114000BE01635F7F4FCE0101960E94D504B82E89
:10115000CE0101960E945005035F1F4FBB2009F48A
:1011600084C08DE08E9D80018F9D100D11240E5B3B
:10117000144FF80186819781029708F05EC082853E
:10118000882309F43FC0C6010E94850363E872E02A
:10119000CE0101960E94FF06BE016F5F7F4FCE0118
:1011A0000D960E94A606CE0101960E94500565E4A8
:1011B00072E0CE0107960E94FF066AE872E0CE0157
:1011C00001960E94FF06BE01635F7F4FCE0101962C
:1011D0000E94C20560E972E00E94AC05BE01695F31
:1011E0007F4F0E94C2050E943F04CE0101960E94DB
:1011F0005005CE0107960E945005CE010D960E9423
:1012000050056CCF61E080850E945E0181E0F801AD
:10121000828767E872E0CE0101960E94FF06BE0158
:101220006F5F7F4FCE010D960E94A606CE010196FC
:101230000E9450056BE472E0BCCF64EA72E0CE011C
:1012400001960E94FF06BE01635F7F4FCE010196AB
:101250000E94C20561EB72E00E94AC050E943F044F
:10126000CE0101960E945005C8CFFFEFEF1AFF0A8A
:1012700059CF6DEC72E0CE0101960E94FF06BE01CF
:10128000635F7F4FCE0101960E94C205E7CF9F9218
:10129000AF92BF92CF92DF92EF92FF920F931F9384
:1012A000CF93DF93CDB7DEB762970FB6F894DEBF6A
:1012B0000FBECDBFBC01CE0101960E945C06BE01EF
:1012C0006F5F7F4FCE010D960E94F207CE0101960F
:1012D0000E9450056AE172E0CE010D960E94C004A2
:1012E0008823F1F08AEE92E00E94310485E193E0D8
:1012F0000E943104CE010D960E94500562960FB6F1
:10130000F894DEBF0FBECDBFDF91CF911F910F913B
:10131000FF90EF90DF90CF90BF90AF909F90089597
:10132000BE01635F7F4FCE0107960E945C0602E418
:101330001BE0F12CE12CA090980AB090990AEA14D5
:10134000FB040CF0B4C06801B801CE0101960E9404
:101350005C06BE01695F7F4FCE0101960E94D504F5
:10136000982ECE0101960E945005035F1F4F9920D1
:1013700009F499C08DE08E9DF0018F9DF00D112430
:10138000EE5BF44F86819781029718F4C6010E94A4
:1013900085032DE02E9DC0012F9D900D11249C01F1
:1013A0002E5B344F690131E0A31AB108EA14FB0443
:1013B000DCF48FEFE81AF80A86019DE0C90ED11C13
:1013C000B601C8010E944506F80183899489978374
:1013D0008683858996899187808787898287808D92
:1013E000918D94878387E2CFB092990AA092980A50
:1013F000C0909A0AD0909B0A84ECE82E8BE0F82EDD
:1014000010E000E00C151D059CF5BE01695F7F4FE3
:10141000C7010E94D504FCE0EF0EF11C882309F4FB
:101420003FC02CE0209FC001219F900D11249C0102
:101430002C53344F790131E0C31AD10857018CE0A5
:10144000A80EB11C0C151D057CF40F5F1F4FB501D4
:10145000C7010E944506B7016E5E7F4FC701069621
:101460000E9445067501EACFD0929B0AC0929A0A63
:1014700060E373E0CE0101960E94FF06BE01695F42
:101480007F4FCE0101960E94C2050E943F04CE010B
:1014900001960E945005CE0107960E9450052ACF62
:1014A0000F5F1F4FAFCF9FEFE91AF90A44CF6DECE2
:1014B00072E0E0CFDF92EF92FF920F931F93CF93F2
:1014C000DF93CDB7DEB762970FB6F894DEBF0FBEDD
:1014D000CDBFBC01CE0101960E945C06BE016F5FCC
:1014E0007F4FCE010D960E94F207CE0101960E9419
:1014F00050056AE172E0CE010D960E94C004882377
:10150000D1F088E493E00E9431048FE693E00E94DA
:101510003104CE010D960E94500562960FB6F894E4
:10152000DEBF0FBECDBFDF91CF911F910F91FF9016
:10153000EF90DF900895BE01635F7F4FCE01079665
:101540000E945C06CE0107960E94AA0404EC1BE0F0
:10155000F12CE12CD12C80919A0A90919B0AE816EB
:10156000F9061CF5B8016A5F7F4FCE0101960E9413
:101570005C06CE0101960E94AA04BE01695F7F4FFE
:10158000CE0101960E94D504882329F0C8010E944B
:101590003F04DD24D394CE0101960E9450058FEFC5
:1015A000E81AF80A045F1F4FD6CFD11004C086E8AE
:1015B00093E00E943104CE0107960E945005A9CF06
:1015C000EF92FF920F931F93CF93DF93CDB7DEB7C8
:1015D0002C970FB6F894DEBF0FBECDBFBC01CE0175
:1015E00001960E945C06BE016F5F7F4FCE01079699
:1015F0000E94F207CE0101960E9450056AE172E056
:10160000CE0107960E94C004811108C061EA73E010
:10161000CE0107960E94C0048823C9F010929B0A4D
:1016200010929A0A8CEA93E00E943104CE01079648
:101630000E9450052C960FB6F894DEBF0FBECDBFAA
:10164000DF91CF911F910F91FF90EF90089563EC80
:1016500073E0CE0107960E94C004882301F102E4E2
:101660001BE0F12CE12C8091980A9091990AE816E0
:10167000F90674F4F80186819781029718F4C8017D
:101680000E948503FFEFEF1AFF0A035F1F4FEBCFA6
:101690001092990A1092980A8BEC93E0C5CF87EECE
:1016A00093E0C2CFEF92FF920F931F93CF93DF93FC
:1016B000CDB7DEB72C970FB6F894DEBF0FBECDBF07
:1016C000BC01CE0101960E945C06BE016F5F7F4F98
:1016D000CE0107960E94F207CE0101960E945005A6
:1016E0006AE172E0CE0107960E94C004811108C031
:1016F00061EA73E0CE0107960E94C004882321F1BD
:1017000085E294E00E94310404EC1BE0F12CE12C12
:1017100080919A0A90919B0AE816F90684F589E36C
:1017200094E00E94A703C8010E9435028CE394E074
:101730000E94A703C80106960E943F048FEFE81A93
:10174000F80A045F1F4FE4CF63EC73E0CE01079605
:101750000E94C004882309F46BC080E494E00E94D6
:1017600031048091980A9091990A02E41BE0F12CCF
:10177000E12C892BA9F481E594E00E943104CE018B
:1017800007960E9450052C960FB6F894DEBF0FBE48
:10179000CDBFDF91CF911F910F91FF90EF900895F2
:1017A0008091980A9091990AE816F90644F789E31E
:1017B00094E00E94A703B801CE0101960E945C0646
:1017C000CE0101960E943502CE0101960E9450057D
:1017D0008FE594E00E94A703F80166817781CE012E
:1017E00001960E941007CE0101960E943502CE019B
:1017F00001960E94500582E694E00E94A703F8013A
:1018000060857185072E000C880B990B97FF0CC023
:101810000E94F80382EF98E00E943104FFEFEF1A74
:10182000FF0A035F1F4FBCCF4AE00E94B403F2CF10
:1018300089E694E0A2CFAF92BF92CF92DF92EF926F
:10184000FF920F931F93CF93DF93CDB7DEB76297CD
:101850000FB6F894DEBF0FBECDBFBC01CE0101961E
:101860000E945C06BE016F5F7F4FCE010D960E9405
:10187000F207CE0101960E9450056AE172E0CE01A6
:101880000D960E94C00402E41BE0F12CE12C882399
:1018900009F4ADC08EEA94E00E9431048FEC94E02C
:1018A0000E9431048CC06801B801CE0101960E94EB
:1018B0005C06BE01635F7F4FCE0101960E94D50496
:1018C000B82ECE0101960E945005035F1F4FBB202A
:1018D00009F48AC08DE08E9D80018F9D100D11242A
:1018E0000E5B144FF8018681978197FD05C0823009
:1018F00091052CF0029749F189EF94E0D1CFB60120
:10190000CE0101960E945C06BE016F5F7F4FCE0143
:1019100007960E945C0660EE74E0CE0107960E9476
:10192000AC050E943502CE0107960E945005CE01FB
:1019300001960E945005F8018285882319F087EAF4
:1019400094E0AECF8AEA94E0ABCF80850E94EA01B2
:10195000F80194878387C6010E949603BC01CE01DB
:1019600001960E94F605BE016F5F7F4FCE010D9676
:101970000E94A606CE0101960E945005B601CE0136
:1019800001960E945C06BE016F5F7F4FCE010796F5
:101990000E945C0669EE74E0CE0107960E94AC05D9
:1019A0000E943502CE0107960E945005CE01019695
:1019B0000E945005C6010E9496030E941904CE01A0
:1019C0000D960E94500562960FB6F894DEBF0FBECA
:1019D000CDBFDF91CF911F910F91FF90EF90DF90DE
:1019E000CF90BF90AF900895FFEFEF1AFF0A80915C
:1019F000980A9091990AE816F9060CF454CFA09031
:101A00009A0AB0909B0A04EC1BE0F12CE12CEA143A
:101A1000FB0474F5C801845C9B406C01BE01635FEC
:101A20007F4FC8010E94D504045F1F4F8823E1F057
:101A3000B6016653744FCE0101960E945C066AE1BE
:101A400072E0CE0101960E94C004811118C085E1A8
:101A500095E00E94A703CE0101960E943F04CE01AB
:101A600001960E945005ABCF9FEFE91AF90ACFCF3C
:101A70006AE172E0CE0101960E94FF06E0CF8BE1A1
:101A800095E00E943104EBCF9F92AF92BF92CF922C
:101A9000DF92EF92FF920F931F93CF93DF93CDB717
:101AA000DEB76E970FB6F894DEBF0FBECDBF8C01C8
:101AB000BC01CE0101960E945C06BE016F5F7F4FA4
:101AC000CE0143960E94F207CE0101960E94500576
:101AD0004F89588DB801CE0149960E94AA07CE01C0
:101AE00049960E944D046AE172E0CE0143960E943D
:101AF000C004811168C06AE172E0CE0149960E947B
:101B0000C004811160C082E4E82E8BE0F82E6701EA
:101B100010E000E0A090980AB090990A0A151B0501
:101B20000CF00CC1B601CE0101960E945C06BE010C
:101B30006D5E7F4FCE0101960E94D504982ECE0196
:101B400001960E9450058DE0C80ED11C992009F421
:101B500015C1BE01675E7F4FCE010D960E945C06E7
:101B6000BE016D5E7F4FCE0107960E945C06D12CB0
:101B7000C12CB701CE0101960E945C06BE01695FCF
:101B80007F4FCE0101960E94D504182FCE010196F9
:101B90000E945005112309F4D9C08DE08C9D80016D
:101BA0008D9D100D11240E5B144FF80186819781D5
:101BB00097FD06C08230910544F1029709F485C073
:101BC00089EF94E07FC08EE295E00E9431048BE5BE
:101BD00095E00E943104CE0149960E945005CE0145
:101BE00043960E9450056E960FB6F894DEBF0FBE66
:101BF000CDBFDF91CF911F910F91FF90EF90DF90BC
:101C0000CF90BF90AF909F90089567E872E0CE01AB
:101C10000D960E94C004882369F161E0F801808577
:101C20000E945E0181E0F801828767E872E0CE01E0
:101C300001960E94FF06BE016F5F7F4FCE0107969F
:101C40000E94A606CE0101960E945005BE01695F62
:101C50007F4FCE0101960E945C0664E775E0CE01DD
:101C600001960E94AC050E943F04CE0101960E949D
:101C700050055CC063E872E0CE010D960E94C0047E
:101C80008823F1F0C7010E94850363E872E0CE016A
:101C900001960E94FF06BE016F5F7F4FCE0107963F
:101CA0000E94A606CE0101960E945005BE01695F02
:101CB0007F4FCE0101960E945C066CE775E0CFCFA6
:101CC00085E895E00E94310431C080850E94EA01D8
:101CD000F80194878387C7010E949603BC01CE0157
:101CE00001960E94F605BE016F5F7F4FCE010796F9
:101CF0000E94A606CE0101960E945005BE01695FB2
:101D00007F4FCE0101960E945C066DEA75E0CE0120
:101D100001960E94AC050E943502CE0101960E94F8
:101D20005005C7010E9496030E941904CE01079630
:101D30000E945005CE010D960E945005BE01675EBF
:101D40007F4FCE0143960E94A60645CFFFEFCF1AE4
:101D5000DF0A8DE0E80EF11CCA14DB040CF409CF95
:101D60006DEB75E0CE0101960E94FF06BE01695F32
:101D70007F4FCE0101960E94C20575CF0F5F1F4FA6
:101D8000C9CECF92DF92EF92FF921F93CF93DF9352
:101D9000CDB7DEB72C970FB6F894DEBF0FBECDBF20
:101DA000BC01CE0107960E945C06CE0107960E94F8
:101DB0004D04EF80F884E114F10471F0F701819192
:101DC0007F01882349F0082E000C990B0E944118CE
:101DD000F70131978083F2CF69ED75E0CE0101966E
:101DE0000E94FF064D815E818B859C858417950737
:101DF00070F08F819885009751F069817A81611523
:101E0000710529F00E946D1811E0892B09F010E08E
:101E1000CE0101960E945005112369F141E050E086
:101E2000BE01695F7F4FCE0101960E94AA0789819A
:101E30009A81C12CD12C7601009719F00E948C1543
:101E40006B01CE0101960E945005F6E3CF0ED11C26
:101E5000CE0107960E945005C6012C960FB6F89445
:101E6000DEBF0FBECDBFDF91CF911F91FF90EF90EE
:101E7000DF90CF9008958F819885009749F00E9458
:101E80008C156B0177FFE4CFCC24CA94DC2CE0CF17
:101E900060E070E0CB01F5CFAF92BF92CF92DF92BE
:101EA000EF92FF920F931F93CF93DF93CDB7DEB7DF
:101EB000AB970FB6F894DEBF0FBECDBF8C01BC014F
:101EC000CE0101960E945C06BE016F5F7F4FCE017E
:101ED00044960E94F207CE0101960E945005488D5B
:101EE000598DB801CE014A960E94AA07CE014A96A2
:101EF0000E944D04BE01665E7F4FCE0101960E9496
:101F00005C06BE016F5F7F4FCE0180960E94F20794
:101F1000CE0101960E9450054CA15DA1BE01665EF6
:101F20007F4FCE0186960E94AA07CE0186960E9418
:101F30004D046AE172E0CE0144960E94C004811112
:101F400014C06AE172E0CE0180960E94C004811143
:101F50000CC06AE172E0CE0186960E94C00402E4E1
:101F60001BE0F12CE12C882341F08BED95E00E94E1
:101F7000310494C08FEFE81AF80A8091980A909182
:101F8000990AE816F9060CF0AAC05801B801CE016A
:101F900001960E945C06BE016C5E7F4FCE010196E9
:101FA0000E94D504D82ECE0101960E945005035FF1
:101FB0001F4FDD20F9F2CE0180960E9465068C014C
:101FC00084E196E00330110591F2CE0186960E94DD
:101FD000C10E6C018DE296E0D7FCC9CFBE016C5EEC
:101FE0007F4FCE010E960E945C069601A801BE01AD
:101FF000625F7F4FCE0101960E942D07BE016F5F89
:102000007F4FC5010E9405058DE08E9DF0018F9DDB
:10201000F00D1124EE5BF44F8F81988597838683B2
:1020200089859A85918780878B8582878C859D8518
:1020300094878387CE0101960E945005CE010E96AB
:102040000E94500563E872E00230110528F002306A
:10205000110589F465E476E0CE0101960E94FF0641
:10206000BE016F5F7F4FCE0144960E94A606CE014F
:1020700001960E94500567E476E0CE0101960E9429
:10208000FF06BE016C5E7F4FCE0101960E94C20525
:102090000E943F04CE0101960E945005CE01869613
:1020A0000E945005CE0180960E945005CE014A96AE
:1020B0000E945005CE0144960E945005AB960FB683
:1020C000F894DEBF0FBECDBFDF91CF911F910F916E
:1020D000FF90EF90DF90CF90BF90AF9008958CE588
:1020E00096E045CFBF92CF92DF92EF92FF920F938F
:1020F0001F93CF93DF93CDB7DEB7ED970FB6F8946C
:10210000DEBF0FBECDBF8C01BC01CE0101960E9487
:102110005C06BE016F5F7F4FCE0186960E94F2077C
:10212000CE0101960E9450054AA55BA5B801CE01DB
:102130008C960E94AA07CE018C960E944D04BE0187
:10214000645D7F4FCE0101960E945C06BE016F5F09
:102150007F4FCE01C2960E94F207CE0101960E94E7
:1021600050054EA95FA9BE01645D7F4FCE01C896A0
:102170000E94AA07CE01C8960E944D046AE172E04F
:10218000CE0186960E94C004811110C06AE172E0FF
:10219000CE01C2960E94C004811108C06AE172E0BB
:1021A000CE01C8960E94C004882341F18BE796E0D7
:1021B0000E94310480EB96E00E943104CE01C89663
:1021C0000E945005CE01C2960E945005CE018C9609
:1021D0000E945005CE0186960E945005ED960FB6DE
:1021E000F894DEBF0FBECDBFDF91CF911F910F914D
:1021F000FF90EF90DF90CF90BF900895BE01685C94
:102200007F4FCE0180960E945C06BE016E5C7F4FC0
:10221000CE014A960E945C06BE016A5D7F4FCE01E8
:1022200044960E945C06E090980AF090990A82E435
:10223000C82E8BE0D82E10E000E08AE0E816F1040A
:102240009CF085ED96E00E943104CE0144960E94F8
:102250005005CE014A960E945005CE0180960E94FC
:102260005005ACCF0F5F1F4F0E151F05CCF4B60104
:10227000CE0101960E945C06BE016C5E7F4FCE01CE
:1022800001960E94D504B82ECE0101960E945005F9
:10229000EDE0CE0ED11CBB2029F381EF96E0D3CF29
:1022A000CE014A960E9465066C010397A1F467E18E
:1022B00077E0CE0101960E94FF06BE01665E7F4F69
:1022C000CE0101960E94C2050E943F04CE010196F4
:1022D0000E945005BACFCE0180960E94C10E8C019B
:1022E0008DE296E017FDAFCFBE016C5E7F4FCE0151
:1022F0000E960E945C069801A601BE01625F7F4FA8
:10230000CE0101960E942D078DE08E9D80018F9D4C
:10231000100D11240E5B144FBE016F5F7F4FC8017B
:102320000E9405058F819885F801978386838985AA
:102330009A85918780878B8582878C859D859487F8
:102340008387CE0101960E945005CE010E960E9411
:102350005005FFEFEF1AFF0AF092990AE092980AEF
:1023600063E872E082E0C816D10430F0E2E0CE16F5
:10237000D10489F465E476E0CE0101960E94FF065F
:10238000BE016F5F7F4FCE0144960E94A606CE012C
:1023900001960E945005B601CE010E960E941007CC
:1023A00061E377E0CE0101960E94FF06BE016C5EFC
:1023B0007F4FCE0101960E94C2056FE574E00E9436
:1023C000AC05BE01625F7F4F0E94C20562EF78E0FC
:1023D0000E94AC050E943F04CE0101960E94500568
:1023E000CE010E960E94500530CF0F931F93CF93CE
:1023F000DF93CDB7DEB762970FB6F894DEBF0FBE9E
:10240000CDBF8C010E944D04F80184819581892BF8
:1024100009F441C0C8010E94AA04B801CE01019686
:102420000E945C06BE016F5F7F4FCE010D960E9439
:10243000F207CE0101960E945005CE010D960E9432
:10244000AA0449895A89B801CE0107960E94AA07B1
:10245000CE0107960E944D0467E477E0CE010D9609
:102460000E94C004882311F1BE01695F7F4FCE0135
:1024700001960E945C06CE0101960E94440DCE0199
:1024800001960E945005CE0107960E945005CE018C
:102490000D960E94500562960FB6F894DEBF0FBEEF
:1024A000CDBFDF91CF911F910F9108956BE477E03D
:1024B000CE010D960E94C004882361F0BE01695FC1
:1024C0007F4FCE0101960E945C06CE0101960E94CC
:1024D0001B0CD5CF6FE477E0CE010D960E94C004AF
:1024E000882361F0BE01695F7F4FCE0101960E9493
:1024F0005C06CE0101960E94520BC1CF65E577E0E4
:10250000CE010D960E94C004882361F0BE01695F70
:102510007F4FCE0101960E945C06CE0101960E947B
:10252000E00AADCF6BE577E0CE010D960E94C004C6
:10253000882361F0BE01695F7F4FCE0101960E9442
:102540005C06CE0101960E945A0A99CF63E677E0B5
:10255000CE010D960E94C004882361F0BE01695F20
:102560007F4FCE0101960E945C06CE0101960E942B
:10257000721085CF6DE677E0CE010D960E94C00403
:10258000882361F0BE01695F7F4FCE0101960E94F2
:102590005C06CE0101960E94470971CF6AE777E099
:1025A000CE010D960E94C004882361F0BE01695FD0
:1025B0007F4FCE0101960E945C06CE0101960E94DB
:1025C0004C0F5DCF65E47AE0CE010D960E94C00409
:1025D000882369F187E897E00E94310487E997E052
:1025E0000E9431048CEC97E00E94310481E098E075
:1025F0000E9431048FE398E00E9431048DE798E057
:102600000E9431048BEA98E00E94310484EF98E044
:102610000E9431048FE199E00E9431048AE599E03B
:102620000E94310483E999E00E9431042CCF68ECC8
:1026300079E0CE010D960E94C004882361F0BE01AE
:10264000695F7F4FCE0101960E945C06CE01019624
:102650000E94510814CF8FEC99E00E94A703CE018D
:102660000D960E943F0485EE99E0DECF1F920F92F7
:102670000FB60F9211242F933F938F939F93AF9395
:10268000BF938091A10A9091A20AA091A30AB09150
:10269000A40A3091A00A23E0230F2D3758F50196A4
:1026A000A11DB11D2093A00A8093A10A9093A20AB4
:1026B000A093A30AB093A40A80919C0A90919D0ACA
:1026C000A0919E0AB0919F0A0196A11DB11D809311
:1026D0009C0A90939D0AA0939E0AB0939F0ABF9173
:1026E000AF919F918F913F912F910F900FBE0F90BF
:1026F0001F90189526E8230F0296A11DB11DD2CF79
:102700001F920F920FB60F9211240BB60F922F93B8
:102710003F934F935F936F937F938F939F93AF9369
:10272000BF93EF93FF9385EA9AE00E94C502FF9161
:10273000EF91BF91AF919F918F917F916F915F9139
:102740004F913F912F910F900BBE0F900FBE0F90A6
:102750001F9018951F920F920FB60F9211240BB66F
:102760000F922F938F939F93EF93FF93E091B50A6E
:10277000F091B60A8081E091BB0AF091BC0A82FD1B
:102780001DC090818091BE0A8F5F8F732091BF0A18
:10279000821741F0E091BE0AF0E0EB55F54F958FBE
:1027A0008093BE0AFF91EF919F918F912F910F908F
:1027B0000BBE0F900FBE0F901F9018958081F2CF27
:1027C000CF93DF93C4ECDBE02D97CE010E94500540
:1027D0008BE0C234D807C1F7CCE2DDE02C97CE0104
:1027E00006960E945005CE010E9450058BE0C43C25
:1027F000D807A1F7DF91CF910895CF92DF92EF92A2
:10280000FF920F931F93CF93DF931092A80A109219
:10281000A70A88EE93E0A0E0B0E08093A90A909325
:10282000AA0AA093AB0AB093AC0A8AE092E0909314
:10283000A60A8093A50A85EC90E09093B20A809353
:10284000B10A84EC90E09093B40A8093B30A80ECD0
:1028500090E09093B60A8093B50A81EC90E0909353
:10286000B80A8093B70A82EC90E09093BA0A8093FA
:10287000B90A86EC90E09093BC0A8093BB0A109250
:10288000BE0A1092BF0A1092C00A1092C10AC4EC8C
:10289000DBE06AE172E0CE010E94FF066AE172E0CD
:1028A000CE0106960E94FF062C968DE0CC32D8070A
:1028B00081F7C2E4DBE004EC1BE083E0C82ED12CFE
:1028C000EE24EA94FE2C6AE172E0CE010E94FF063B
:1028D000DF82CE82F986E8861A861C861B862D96B4
:1028E0000C171D0781F7DF91CF911F910F91FF907A
:1028F000EF90DF90CF900895CF93DF93CDB7DEB701
:102900002C970FB6F894DEBF0FBECDBF789484B578
:10291000826084BD84B5816084BD85B5826085BDDB
:1029200085B5816085BD80916E00816080936E0069
:10293000109281008091810082608093810080915B
:10294000810081608093810080918000816080930C
:1029500080008091B10084608093B1008091B000CC
:1029600081608093B000809191008260809391009B
:1029700080919100816080939100809190008160AE
:10298000809390008091A10082608093A10080914B
:10299000A10081608093A1008091A000816080935C
:1029A000A00080912101826080932101809121010A
:1029B00081608093210180912001816080932001BA
:1029C00080917A00846080937A0080917A0082609E
:1029D00080937A0080917A00816080937A00809160
:1029E0007A00806880937A001092C100E091B50A65
:1029F000F091B60A82E08083E091B10AF091B20AC8
:102A00001082E091B30AF091B40A8FEC80831092A7
:102A1000BD0AE091B90AF091BA0A86E08083E0919C
:102A2000B70AF091B80A808180618083E091B70A8B
:102A3000F091B80A808188608083E091B70AF091B4
:102A4000B80A808180688083E091B70AF091B80A63
:102A500080818F7D80838AE49AE00E94310482E63F
:102A600095E00E94310486ED94E00E9431048CE8E8
:102A700094E00E9431048AE094E00E94310486E7E9
:102A800093E00E94310487EB96E00E9431048CE1D0
:102A900093E00E94310489E69AE00E9431048AE8BA
:102AA0009AE00E94310485E49AE00E94310485EAAC
:102AB0009AE00E94AF02892B61F16AE172E0CE01D7
:102AC00007960E94FF060E94610297FD0FC08A30A0
:102AD000910561F089831A8241E050E0BE016F5F89
:102AE0007F4FCE0107960E948005EDCFBE01695F42
:102AF0007F4FCE0101960E945C06CE0101960E9496
:102B0000F511CE0101960E945005CE0107960E9454
:102B100050050E945403CBCF1F93FC0199278827AF
:102B2000BC01E89411911032E9F3193010F01E3015
:102B3000C8F31B3251F01D3249F4689406C00E945C
:102B4000BE15610F711D811D911D119110531A3019
:102B5000B0F33EF490958095709561957F4F8F4FBF
:102B60009F4F1F910895BB274A3031F4992322F4D7
:102B7000BDE2909581959F4F0C94D415592F482F05
:102B8000372F262F660F771F881F991F660F771F15
:102B9000881F991F620F731F841F951F660F771F71
:102BA000881F991F0895BB27FB015527AA27880F67
:102BB000991FAA1FA41710F0A41B83955051B9F7B1
:102BC000A05DAA3308F0A95DA193009779F7B11130
:102BD000B1931192CB010C94F61591110C94061639
:102BE000803219F089508550C8F70895DC01FC0146
:102BF000672F71917723E1F7329704C07C916D9331
:102C000070836291AE17BF07C8F30895992788278C
:102C10000895A1E21A2EAA1BBB1BFD010DC0AA1F1D
:102C2000BB1FEE1FFF1FA217B307E407F50720F035
:102C3000A21BB30BE40BF50B661F771F881F991FB0
:102C40001A9469F760957095809590959B01AC01F9
:102C5000BD01CF010895EE0FFF1F881F8BBF0790A6
:102C6000F691E02D19940F931F93CF93DF93823049
:102C7000910510F482E090E0E0912E0DF0912F0D7F
:102C800030E020E0B0E0A0E0309799F42115310564
:102C900009F44AC0281B390B24303105D8F58A8144
:102CA0009B816115710589F1FB0193838283FE018C
:102CB00011C0408151810281138148175907E0F00A
:102CC0004817590799F4109761F012960C931297D0
:102CD00013961C933296CF01DF91CF911F910F91E4
:102CE000089500932E0D10932F0DF4CF211531056B
:102CF00051F04217530738F0A901DB019A01BD01D9
:102D0000DF01F801C1CFEF01F9CF90932F0D809330
:102D10002E0DCDCFFE01E20FF31F81939193225030
:102D2000310939832883D7CF20912C0D30912D0D77
:102D3000232B41F4209102023091030230932D0D98
:102D400020932C0D209100023091010221153105B4
:102D500041F42DB73EB74091040250910502241B67
:102D6000350BE0912C0DF0912D0DE217F307A0F437
:102D70002E1B3F0B2817390778F0AC014E5F5F4FD1
:102D80002417350748F04E0F5F1F50932D0D4093C9
:102D90002C0D819391939FCFF0E0E0E09CCFCF93F7
:102DA000DF930097E9F0FC01329713821282A09121
:102DB0002E0DB0912F0DED0130E020E01097A1F421
:102DC00020813181820F931F20912C0D30912D0D88
:102DD0002817390709F061C0F0932D0DE0932C0DF1
:102DE000DF91CF910895EA01CE17DF07E8F54A8118
:102DF0005B819E0141155105B1F7E901FB83EA832F
:102E000049915991C40FD51FEC17FD0761F48081DA
:102E100091810296840F951FE901998388838281AD
:102E200093819B838A83F0E0E0E012968D919C91E0
:102E300013970097B9F52D913C911197CD0102960A
:102E4000820F931F20912C0D30912D0D28173907DB
:102E500039F6309751F510922F0D10922E0DB09338
:102E60002D0DA0932C0DBCCFD383C2834081518103
:102E7000840F951FC817D90761F44E5F5F4F888193
:102E80009981480F591F518340838A819B81938385
:102E900082832115310509F0B0CFF0932F0DE09317
:102EA0002E0D9ECFFD01DC01C0CF13821282D7CF41
:102EB0004F925F926F927F928F929F92AF92BF924A
:102EC000CF92DF92EF92FF920F931F93CF93DF93F6
:102ED0008C01009799F4CB01DF91CF911F910F9155
:102EE000FF90EF90DF90CF90BF90AF909F908F902A
:102EF0007F906F905F904F900C943316FC01E60F1B
:102F0000F71F9C0122503109E217F30708F4AEC005
:102F1000D901CD91DC911197C617D70720F1C530A3
:102F2000D10578F0CE0104978617970750F0C61B9D
:102F3000D70B2297C193D1936D937C93CF010E94BD
:102F4000CF16C801DF91CF911F910F91FF90EF90A5
:102F5000DF90CF90BF90AF909F908F907F906F90B9
:102F60005F904F9008955B01AC1ABD0A4C018C0E26
:102F70009D1EA0912E0DB0912F0D512C412CF12CA6
:102F8000E12C109731F580912C0D90912D0D881525
:102F9000990509F05CC04616570608F058C08091A4
:102FA000000290910102009741F48DB79EB74091C5
:102FB000040250910502841B950BE817F90708F0ED
:102FC00055C0F0932D0DE0932C0DF90171836083B2
:102FD000B8CF8D919C91119712966C901297139681
:102FE0007C901397A815B90559F56C0142E0C40E01
:102FF000D11CCA14DB0420F1AC014A195B09DA01C7
:103000001296159780F06282738251834083D901B2
:103010006D937C93E114F10471F0D7011396FC9346
:10302000EE9312978ECF22968C0F9D1FF9019183FC
:103030008083F301EFCFF0932F0DE0932E0D81CF1E
:103040004816590608F42C017D01D3019ACFCB0113
:103050000E9433167C01009749F0AE01B8010E942E
:103060004918C8010E94CF1687016BCF10E000E01D
:1030700068CF9111089581548A5108F4805E855A71
:1030800008959111089581568A5108F48052855807
:103090000895FB01DC0102C001900D9241505040A7
:1030A000D8F70895FC018191861721F08823D9F77C
:1030B000992708953197CF010895FB01DC018D9187
:1030C000019080190110D9F3990B0895FB01DC01DF
:1030D00001900D920020E1F70895FB01DC014150C1
:1030E000504030F08D910190801919F40020B9F70B
:1030F000881B990B089511E0CAE2D1E000E006C0F8
:10310000802FFE010E942B162196011DCB32D10784
:0A31100080E00807A9F7F894FFCF4C
:10311A000000300D800000000000E70208023E02B5
:10312A003403AF024D02A1020D0A006C6564006D02
:10313A006F746F720073656E736F72004C45440052
:10314A004D4F544F520053454E534F5200554E4B1C
:10315A004E4F574E00434C4F5345004F50454E007B
:10316A00E29D8C20436F6D6D616E642027746F67DA
:10317A00676C6527206973206E6565647320746FB8
:10318A00203C6E616D653E20706172616D6574658B
:10319A00722E006F6666006F6E00F09F94842000A6
:1031AA0020737461746520697320746F67676C6536
:1031BA00643A2000E29AA0EFB88F20466F72202767
:1031CA0000272C20746F67676C65206973206E6F07
:1031DA007420737570706F727465642E00E29D8C32
:1031EA00204465766963652069732063616E6E6F3A
:1031FA007420666F756E643A2000E29D8C20436FDE
:10320A006D6D616E64202772656D6F766564657693
:10321A0069636527206E6565647320746F203C6E50
:10322A00616D653E0055736167653A2072656D6F21
:10323A007665646576696365203C6E616D653E00FE
:10324A00E29C85204465766963652069732072650E
:10325A006D6F7665643A2000E29D8C20436F6D6D38
:10326A00616E64202766696E646B657927206E65D6
:10327A0065647320746F203C76616C75653E0055F9
:10328A00736167653A2066696E646B6579203C767E
:10329A00616C75653E00E29D8C2056616C756520F7
:1032AA0069732063616E6E6F7420666F756E642E2B
:1032BA000064696374696F6E61727900446963744A
:1032CA00696F6E61727920697320636C65617265DA
:1032DA00642E006465766963657300F09FA7B9443C
:1032EA006576696365206C69737420697320636C01
:1032FA0065617265642E00E29D8C20556E76616C64
:10330A00696420636C65617220617267756D656EB0
:10331A00742E2055736167653A20636C656172206B
:10332A005B64696374696F6E6172797C64657669DE
:10333A006365735D0044696374696F6E61727920B5
:10334A00636F6E74656E743A002D2000203D200074
:10335A00204C697374656420446576696365733AC1
:10336A00004C69737420697320656D70747900204C
:10337A0028002C2050696E3A00E29D8C20556E760A
:10338A00616C6964207072696E7420617267756D10
:10339A00656E742E2055736167653A207072696E86
:1033AA0074205B64696374696F6E6172797C6465A9
:1033BA0076696365735D004F4E004F464600E29D95
:1033CA008C20436F6D6D616E6420276765742720BA
:1033DA006E6565647320746F203C6B65793E005599
:1033EA00736167653A20676574203C6B65793E00B6
:1033FA002073746174653A20002053656E736F728E
:10340A002076616C75653A2000E29AA0EFB88F20A9
:10341A00556E76616C6964206465766963652074AB
:10342A007970652E00F09F948E2000E29D8C2043D7
:10343A00616E6E6F7420666F756E642E2000E29D59
:10344A008C20436F6D6D616E64202773657427202D
:10345A006E6565647320746F203C6B65793E2061EC
:10346A006E64203C76616C75653E005573616765D4
:10347A003A20736574203C6B65793E203C76616C1A
:10348A0075653E00206973206F6E2E0020697320D7
:10349A006F66662E00E29AA0EFB88F2050617261C3
:1034AA006D65746572206D75737420626520276F6F
:1034BA006E27206F7220276F6666272E002073659D
:1034CA006E736F722076616C75653A2000E29D8C8E
:1034DA00204465766963652069732063616E6E6F47
:1034EA00742066696E643A20004100E29D8C204394
:1034FA006F6D6D616E6420277570646174656465B3
:10350A007669636527206E6565647320746F203C55
:10351A006E616D653E203C747970653E203C706931
:10352A006E3E2E00E29D8C20556E76616C69642099
:10353A0064657669636520747970652E00E29D8CF6
:10354A0020556E76616C69642070696E206E756DA7
:10355A006265722E003000204465766963652069D1
:10356A007320757064617465643A2000E29D8C2052
:10357A004E6F2064657669636520666F756E642098
:10358A00746F207570646174652E00E29D8C20430F
:10359A006F6D6D616E64202761646464657669632A
:1035AA006527206E6565647320746F203C6E616DBB
:1035BA00653E203C747970653E203C70696E3E0021
:1035CA0055736167653A2061646464657669636509
:1035DA00203C6E616D653E203C747970653E203CEE
:1035EA0070696E3E00E29AA0EFB88F204465766952
:1035FA006365206C6973742069732066756C6C2E20
:10360A0000E29AA0EFB88F20546869732064657647
:10361A0069636520697320616C7265616479206CE5
:10362A0069737465642E00E29D8C20556E76616C18
:10363A0069642064657669636520747970653A20E7
:10364A0000E29C8520446576696365206973206180
:10365A00646465643A200073657400676574007079
:10366A0072696E7400636C6561720066696E646B80
:10367A006579006164646465766963650072656D85
:10368A006F766564657669636500757064617465F3
:10369A006465766963650020436F6D6D616E64735E
:1036AA00204C6973743A0020736574203C6B657909
:1036BA003E203C76616C75653E202020202020202B
:1036CA002D20536574206F722075706461746520B3
:1036DA0061206B65792F76616C756500206765746A
:1036EA00203C6B65793E20202020202020202020AD
:1036FA0020202020202D204765742076616C756576
:10370A00206F7220646576696365207374617465DD
:10371A0000207072696E74205B64696374696F6EED
:10372A006172797C646576696365735D202D2050CA
:10373A0072696E742064696374696F6E617279204C
:10374A006F7220646576696365206C697374002002
:10375A00636C656172205B64696374696F6E617220
:10376A00797C646576696365735D202D20436C6599
:10377A0061722064696374696F6E617279206F7215
:10378A0020646576696365206C69737400206669D4
:10379A006E646B6579203C76616C75653E202020ED
:1037AA002020202020202D2046696E64206B657918
:1037BA00732062792076616C7565002061646464A7
:1037CA006576696365203C6E616D653E203C74795F
:1037DA0070653E203C70696E3E202D204164642055
:1037EA006E657720646576696365202874797065EB
:1037FA003A206C65647C6D6F746F727C73656E734E
:10380A006F7229002072656D6F76656465766963EB
:10381A0065203C6E616D653E20202020202D2052BF
:10382A00656D6F7665206120646576696365002041
:10383A00757064617465646576696365203C6E6160
:10384A006D653E203C747970653E203C70696E3E21
:10385A00202D2055706461746520646576696365FE
:10386A0020747970652F70696E0020746F67676CB9
:10387A0065203C6E616D653E20202020202020209E
:10388A002020202D20546F67676C65204C45442FFB
:10389A004D4F544F52206465766963652073746195
:1038AA007465002068656C7020202020202020206C
:1038BA002020202020202020202020202D20536876
:1038CA006F772068656C70206C697374206F6E2046
:1038DA0041726475696E6F00746F67676C6500E2A8
:1038EA009D8C20556E6B6E6F776E20436F6D6D6188
:1038FA006E643A200056616C696420436F6D6D6195
:10390A006E64733A207365742C206765742C20707A
:10391A0072696E742C20636C6561722C2066696E04
:10392A00646B65792C206164646465766963652CCF
:10393A002072656D6F76656465766963652C20759E
:10394A0070646174656465766963652C20746F6759
:10395A00676C652C2068656C7000436F6E6E6563DA
:10396A0074696E67206973207265616479212043E6
:10397A006F6D6D616E64733A00757064617465642D
:10398A006576696365203C6E616D653E203C74799D
:10399A0070653E203C70696E3E00746F67676C65A7
:0839AA00203C6E616D653E00DA
:00000001FF
