:020000040000FA
:100000000C942B010C945C010C945C010C945C012D
:100010000C945C010C945C010C945C010C945C01EC
:100020000C945C010C945C010C945C010C945C01DC
:100030000C945C010C945C010C945C010C945C01CC
:100040000C945C010C945C010C945C010C945C01BC
:100050000C945C010C945C010C945C010C943613C0
:100060000C945C010C94AA130C9480130C945C0106
:100070000C945C010C945C010C945C010C945C018C
:100080000C945C010C945C010C945C010C945C017C
:100090000C945C010C945C010C945C010C945C016C
:1000A0000C945C010C945C010C945C010C945C015C
:1000B0000C945C010C945C010C945C010C945C014C
:1000C0000C945C010C945C010C945C010C945C013C
:1000D0000C945C010C945C010C945C010C945C012C
:1000E0000C945C010C94A9010C94AF020C94E702EF
:1000F0000C9493010C94E4010C94C4010C94B4018D
:100100000C94D2010C944D020C94DA010C94E00191
:100110000C94BA010C94A1020C943E020C94B1010F
:100120000C94CC010C94FD130C948E010C94AD0135
:100130000C9408020C94E0130C94D6010C94BE01AC
:100140000C94A5010C94C8010C9434030000210008
:10015000240027002A002D00300033000101000098
:10016000040107010A0100002200250028002B00DD
:100170002E003100340002010000050108010B01CE
:1001800005050505070508080808020202020A0A13
:100190000808040404040101010101010101030331
:1001A000030303030303040707070C0C0C0C0C0CDC
:1001B0000C0C0202020206060606060606060B0BD9
:1001C0000B0B0B0B0B0B010210202008081020401A
:1001D000102040800201020108040201010204080B
:1001E0001020408080402010080402018004020199
:1001F00080402010080402010804020101020408E2
:1002000010204080010204081020408000000A0BEA
:1002100002090C0D0E080703040100000000000095
:1002200000000000000000000000000000000000CE
:10023000000000000000000012111000000000008B
:1002400000000000000000000000000000000000AE
:100250000000FD13E01311241FBECFEFD1E2DEBF7B
:10026000CDBF00E00CBF2DE0A8E9BAE001C01D92AF
:10027000A033B207E1F71AE0A0E0B2E0EAE1F1E36F
:1002800000E00BBF02C007900D92A839B107D9F763
:1002900011E0CAE2D1E000E006C021970109802FF9
:1002A000FE010E942B16C932D10780E00807A9F78A
:1002B0000E947C140C947B180C940000282F30E0D2
:1002C000F901E45FFD4F9491F901EA53FE4F449127
:1002D00020583E4FF9012491222309F435C0992377
:1002E00011F191509231F8F4E92FF0E08827E458A9
:1002F000FE4F8F4F0C942B16AD01B1018E01A5015D
:10030000A9019301B401BA01BE01C401C801CC0125
:10031000D201D6019301DA01E001E401809180006D
:100320008F7780938000E22FF0E0EE0FFF1FEA59F5
:10033000FE4FA591B4918FB7F894EC91611148C02C
:1003400040954E234C938FBF0895809180008F7D00
:10035000E8CF80918000877FE4CF84B58F7784BD1C
:10036000E2CF84B58F7DFBCF8091B0008F778093F3
:10037000B000D9CF8091B0008F7DF9CF80919000EF
:100380008F7780939000CFCF809190008F7DF9CFB1
:1003900080919000877FF5CF8091A0008F77809328
:1003A000A000C1CF8091A0008F7DF9CF8091A000E7
:1003B000877FF5CF809120018F7780932001B3CF85
:1003C000809120018F7DF9CF80912001877FF5CF2B
:1003D0004E2BB8CF863308F0865320917B00982FA0
:1003E0009870277F922B90937B0087708064809316
:1003F0007C0080917A00806480937A0080917A00FA
:1004000086FDFCCF80917800909179000895089541
:10041000AF92BF92CF92DF92EF92FF920F931F9312
:10042000CF93DF936C017B018B01040F151FEB0150
:100430005E01AE18BF08C017D10759F06991D60107
:10044000ED91FC910190F081E02DC6011995892B69
:1004500079F7C501DF91CF911F910F91FF90EF9038
:10046000DF90CF90BF90AF900895FC0144815581FB
:100470006081718185EA9AE00C940802FC01538D39
:10048000448D252F30E0842F90E0821B930B54176E
:1004900010F0CF96089501970895FC01918D828DFB
:1004A000981761F0A28DAE0FBF2FB11D5D968C9194
:1004B000928D9F5F9F73928F90E008958FEF9FEFD3
:1004C00008952FB7F8948091A10A9091A20AA09163
:1004D000A30AB091A40A2FBF8093AD0A9093AE0AED
:1004E000A093AF0AB093B00A85EA9AE00E944D0249
:1004F00097FF26C02FB7F8948091A10A9091A20A85
:10050000A091A30AB091A40A2FBF4091AD0A5091C7
:10051000AE0A6091AF0A7091B00A841B950BA60BCE
:10052000B70B4091A90A5091AA0A6091AB0A709149
:10053000AC0A84179507A607B707B0F28FEF9FEFB5
:100540000895FC01918D828D981731F0828DE80F0E
:10055000F11D858D90E008958FEF9FEF0895FC01C8
:10056000918D228D892F90E0805C9F4F821B910995
:100570008F739927089585EA9AE00E94AF0221E0DF
:10058000892B09F420E0822F0895FC01A48DA80F87
:10059000B92FB11DA35ABF4F2C91848D90E00196C5
:1005A0008F739927848FA689B7892C93A089B189E5
:1005B0008C91837080648C93938D848D981306C086
:1005C0000288F389E02D80818F7D80830895EF92EA
:1005D000FF920F931F93CF93DF93EC0181E0888FFD
:1005E0009B8D8C8D98131AC0E889F989808185FFCD
:1005F00015C09FB7F894EE89FF896083E889F9896F
:1006000080818370806480839FBF81E090E0DF9170
:10061000CF911F910F91FF90EF900895F62E0B8DC3
:1006200010E00F5F1F4F0F731127E02E8C8D8E117E
:100630000CC00FB607FCFACFE889F989808185FFE5
:10064000F5CFCE010E94C502F1CFEB8DEC0FFD2F4F
:10065000F11DE35AFF4FF0829FB7F8940B8FEA89A0
:10066000FB8980818062CFCFCF93DF93EC01888DAF
:100670008823B9F0AA89BB89E889F9898C9185FD1D
:1006800003C0808186FD0DC00FB607FCF7CF8C91AB
:1006900085FFF2CF808185FFEDCFCE010E94C5029C
:1006A000E9CFDF91CF91089580E090E0892B29F088
:1006B0000E94BB0281110E94000080E090E0892B23
:1006C00049F080E090E0892B29F00E940000811120
:1006D0000E94000080E090E0892B49F080E090E0EB
:1006E000892B29F00E94000081110E94000080E007
:1006F00090E0892B49F080E090E0892B29F00E945E
:10070000000081110C9400000895CF93DF93FC0149
:10071000268137812230310530F4EC0160E080859C
:100720000E945E011A86DF91CF910895CF93DF93E7
:10073000EC018E819F81029729F488850E94EA014D
:100740009C878B878B859C85DF91CF910895FC01D9
:1007500001900020E9F73197AF01481B590BBC010C
:1007600085EA9AE00C9408028F929F92AF92BF9212
:100770000F931F93CF93DF93CDB7DEB7A1970FB63B
:10078000F894DEBF0FBECDBF19A2423008F44AE094
:100790008E010F5D1F4F842E912CB12CA12CA50131
:1007A00094010E940916E62FB901CA01EA30F4F457
:1007B000E05DD801EE938D01232B242B252B79F7B7
:1007C00090E080E0109719F0CD010E94A703A19658
:1007D0000FB6F894DEBF0FBECDBFDF91CF911F9152
:1007E0000F91BF90AF909F908F900895E95CE1CFFB
:1007F000CF92DF92EF92FF92CF93DF936B017C0158
:100800006DE285EA9AE00E94E702EC01662777270D
:10081000CB016C197D098E099F094AE00E94B4033F
:100820008C0F9D1FDF91CF91FF90EF90DF90CF90C5
:100830000895CF93DF93BC01990F880B990B97FF15
:100840000CC00E94F803EC0188E192E00E94A7032B
:100850008C0F9D1FDF91CF9108954AE00E94B40351
:10086000F2CFCF93DF930E94A703EC0188E192E0DF
:100870000E94A7038C0F9D1FDF91CF910895CF9306
:10088000DF930E943502EC0188E192E00E94A70309
:100890008C0F9D1FDF91CF910895AF92BF92CF92A1
:1008A000DF92EF92FF920F931F93CF93DF93DC01C0
:1008B000CD90DC901197C114D10439F01496CD91EC
:1008C000DC918C017601209761F4DF91CF911F912B
:1008D0000F91FF90EF90DF90CF90BF90AF90089571
:1008E00075015701BFEFAB1ABB0AF7018081082ED3
:1008F000000C990B0E94ED15892B91F72197CC0DD7
:10090000DD1D8881082E000C990B0E94ED15892BA6
:1009100029F0CE15DF0510F02197F3CFAE014F5F20
:100920005F4F4E195F09D80115965C934E9314974B
:10093000CE14DF0420F4B701C6010E944918D80183
:10094000ED91FC91119714968D919C91E80FF91FF0
:100950001082BBCFCF93DF93FC01C081D181209760
:1009600061F08991882349F0082E000C990B0E94B0
:100970003918FE0131978083F4CFDF91CF9108952C
:10098000FC0124813581232B39F421E0FB01808196
:10099000882349F020E007C0808191810E945D1882
:1009A00021E0892BB9F7822F0895FC01248135813C
:1009B000FB014481558124173507E1F4FC01808156
:1009C0009181FB01608171810097D1F06115710502
:1009D000A1F4232BC1F0FC01808190E008C0232BFF
:1009E00091F0FB01808190E091958195910921E042
:1009F000892B09F020E0822F08950E945D18F7CF1F
:100A00006115710561F721E0F6CF0F931F93CF9326
:100A1000DF938C01EB01FC01808191810097E1F073
:100A20006881798161157105A9F0428153812C811A
:100A30003D814217530770F00E9466188C819D819A
:100A4000F801958384831D821C82DF91CF911F91D1
:100A50000F9108950E94CF1688819981F8019183A2
:100A600080838A819B81938382838C819D819583FE
:100A70008483198218821B821A82E5CFCF93DF9379
:100A8000EC0188819981009711F00E94CF1619829C
:100A900018821D821C821B821A82DF91CF910895D9
:100AA000FC0180819181009711F00C94CF1608957C
:100AB0000F931F93CF93DF93EC0188819981009767
:100AC00059F02A813B812617370730F081E0DF910A
:100AD000CF911F910F9108958B016F5F7F4F0E94FF
:100AE0005817009759F0998388831B830A832C81B8
:100AF0003D81232B59F7FC011082E8CF80E0E7CF3E
:100B0000EF92FF920F931F93CF93DF9361157105BF
:100B100041F480E0DF91CF911F910F91FF90EF9012
:100B2000089541155105B1F07B01EC010C811D8147
:100B3000040F151FB8010E945805882351F328811E
:100B400039818C819D81B701820F931F0E946618A5
:100B50001D830C8381E0DECFCF93DF93EC01FB019B
:100B600001900020E9F73197AF01461B570B0E9417
:100B70008005811103C0CE010E943E05CE01DF91A8
:100B8000CF910895CF93DF93EC01FB014481558110
:100B9000608171810E948005811103C0CE010E9495
:100BA0003E05CE01DF91CF910895EF92FF920F9312
:100BB0001F93CF93DF93EC017B018A01BA010E945E
:100BC000580581110BC0CE010E943E05CE01DF9178
:100BD000CF911F910F91FF90EF9008951D830C838B
:100BE000B701888199810E946618F0CFEF92FF9239
:100BF0000F931F93CF93DF93CDB7DEB762970FB6F6
:100C0000F894DEBF0FBECDBF8C01CB01F80111827D
:100C1000108213821282158214824AE09E012F5F95
:100C20003F4F7901B9010E94B315F70101900020EF
:100C3000E9F73197AF014E195F09B701C8010E946A
:100C4000D50562960FB6F894DEBF0FBECDBFDF911B
:100C5000CF911F910F91FF90EF900895CF93DF9365
:100C6000EC016115710571F0FB0101900020E9F7BD
:100C70003197AF01461B570B0E94D505CE01DF917E
:100C8000CF9108950E943E05F9CFCF93DF93EC01F9
:100C9000FB018617970749F0608171816115710525
:100CA00041F0448155810E94D505CE01DF91CF915D
:100CB00008950E943E05F9CFFC0111821082138233
:100CC0001282158214820C9445060F931F93CF93C2
:100CD000DF9300D000D0CDB7DEB7BC01CE010196C6
:100CE0000E945C06CE0101960E94AA046BE172E0AC
:100CF000CE0101960E94C00410E000E0811116C0F0
:100D00006FE172E0CE0101960E94C00401E010E0A4
:100D100081110CC065E272E0CE0101960E94C00410
:100D200003E010E0882311F002E010E0CE0101960C
:100D30000E945005C80126960FB6F894DEBF0FBE7C
:100D4000CDBFDF91CF911F910F9108958F929F9208
:100D5000AF92BF92CF92DF92EF92FF920F931F93C9
:100D6000CF93DF934C016B01C0919A0AD0919B0AFB
:100D700004EC1BE0F12CE12CEC16FD0624F5C80177
:100D8000845C9B405C01B401C8010E94D504045FEF
:100D90001F4F8823A1F0B601C5018653944F0E94CE
:100DA000450681E0DF91CF911F910F91FF90EF9069
:100DB000DF90CF90BF90AF909F908F9008959FEF5E
:100DC000E91AF90AD9CF80E0CE31D1055CF78CE081
:100DD0008C9F80018D9F100D1124B401C8018C538C
:100DE000944F0E944506B601C8018653944F0E9455
:100DF00045062196D0939B0AC0939A0AD2CFFC0154
:100E0000118210821382128215821482FB010190DA
:100E10000020E9F73197AF01461B570B0C94D5051D
:100E2000CF93DF93EC016130710571F06230710591
:100E300071F0672B79F46CE272E0CE010E94FF063C
:100E4000CE01DF91CF91089560E372E0F6CF66E3C3
:100E500072E0F3CF6DE372E0F0CFCF92DF92EF92CA
:100E6000FF920F931F93CF93DF938C016B017A0155
:100E7000E9016AE172E00E94FF06B601C8010E9422
:100E80004506F801F782E682D187C087128614866C
:100E90001386F2E0EF16F10458F5DD27FE01EA5360
:100EA000FE4F8491C058DE4FFE01C491CC2399F0CF
:100EB000D0E0CC0FDD1FFE01E45BFE4FA591B491A5
:100EC000FE01EA59FE4F259134919FB7F894EC91B9
:100ED000E82BEC939FBF60E0E8018885DF91CF911C
:100EE0001F910F91FF90EF90DF90CF900C945E01D7
:100EF000E2E0EE16F10429F5DD27FE01EA53FE4F8C
:100F00008491C058DE4FFE01C491CC23D1F0D0E0D3
:100F1000CC0FDD1FFE01E45BFE4F25913491FE01F5
:100F2000EA59FE4FA591B4914FB7F894E901988121
:100F3000E82FE095892F8E2388838C91E823EC930A
:100F40004FBFDF91CF911F910F91FF90EF90DF90F6
:100F5000CF900895AF92BF92CF92DF92EF92FF921F
:100F60000F931F93CF93DF935C016B017A01DB0139
:100F700014960D911C910417150720F48F2D7801FC
:100F8000042F182F6AE172E0C5010E94FF06F601E6
:100F9000C481D581EC16FD06C8F40C171D0708F4B2
:100FA000E801D601ED91FC911197EC0FFD1F108126
:100FB00010826D917C916E0D7F1DC5010E942E06E1
:100FC000F60180819181C80FD91F1883C501DF9177
:100FD000CF911F910F91FF90EF90DF90CF90BF9036
:100FE000AF900895AF92BF92CF92DF92EF92FF92AF
:100FF0000F931F93CF93DF937C018B01FB01A480A0
:10100000B580C080D180A114B10469F060E270E0C5
:10101000C6010E945218009731F0EC01CC19DD098D
:10102000CF3FDC07F1F4F701D182C082F801828161
:101030009381F70193838283B582A482F8011182A0
:1010400010821382128215821482C701DF91CF9120
:101050001F910F91FF90EF90DF90CF90BF90AF90D6
:1010600008956AE172E0C7010E94FF06F8018481D9
:101070009581009751F38C179D0708F4EC01F80156
:1010800060817181FB01EC0FFD1FD0801082C701D0
:101090000E942E06F80180819181C80FD91FD88245
:1010A000D4CFBF92CF92DF92EF92FF920F931F9314
:1010B000CF93DF93CDB7DEB762970FB6F894DEBF5C
:1010C0000FBECDBF8C010E944D04F8018481958133
:1010D000892BA1F480E592E00E94310462960FB65C
:1010E000F894DEBF0FBECDBFDF91CF911F910F915E
:1010F000FF90EF90DF90CF90BF900895B801CE01A0
:1011000001960E945C06BE016F5F7F4FCE010D9677
:101110000E94F207CE0101960E94500502E41BE0F6
:10112000F12CE12C8091980A9091990AE816F90621
:101130000CF09FC06801B801CE0101960E945C06C8
:10114000BE01635F7F4FCE0101960E94D504B82E89
:10115000CE0101960E945005035F1F4FBB2009F48A
:1011600084C08DE08E9D80018F9D100D11240E5B3B
:10117000144FF80186819781029708F05EC082853E
:10118000882309F43FC0C6010E94850363E872E02A
:10119000CE0101960E94FF06BE016F5F7F4FCE0118
:1011A0000D960E94A606CE0101960E94500565E4A8
:1011B00072E0CE0107960E94FF066AE872E0CE0157
:1011C00001960E94FF06BE01635F7F4FCE0101962C
:1011D0000E94C20560E972E00E94AC05BE01695F31
:1011E0007F4F0E94C2050E943F04CE0101960E94DB
:1011F0005005CE0107960E945005CE010D960E9423
:1012000050056CCF61E080850E945E0181E0F801AD
:10121000828767E872E0CE0101960E94FF06BE0158
:101220006F5F7F4FCE010D960E94A606CE010196FC
:101230000E9450056BE472E0BCCF64EA72E0CE011C
:1012400001960E94FF06BE01635F7F4FCE010196AB
:101250000E94C20561EB72E00E94AC050E943F044F
:10126000CE0101960E945005C8CFFFEFEF1AFF0A8A
:1012700059CF6DEC72E0CE0101960E94FF06BE01CF
:10128000635F7F4FCE0101960E94C205E7CF9F9218
:10129000AF92BF92CF92DF92EF92FF920F931F9384
:1012A000CF93DF93CDB7DEB762970FB6F894DEBF6A
:1012B0000FBECDBFBC01CE0101960E945C06BE01EF
:1012C0006F5F7F4FCE010D960E94F207CE0101960F
:1012D0000E9450056AE172E0CE010D960E94C004A2
:1012E0008823F1F08AEE92E00E94310485E193E0D8
:1012F0000E943104CE010D960E94500562960FB6F1
:10130000F894DEBF0FBECDBFDF91CF911F910F913B
:10131000FF90EF90DF90CF90BF90AF909F90089597
:10132000BE01635F7F4FCE0107960E945C0602E418
:101330001BE0F12CE12CA090980AB090990AEA14D5
:10134000FB040CF0B4C06801B801CE0101960E9404
:101350005C06BE01695F7F4FCE0101960E94D504F5
:10136000982ECE0101960E945005035F1F4F9920D1
:1013700009F499C08DE08E9DF0018F9DF00D112430
:10138000EE5BF44F86819781029718F4C6010E94A4
:1013900085032DE02E9DC0012F9D900D11249C01F1
:1013A0002E5B344F690131E0A31AB108EA14FB0443
:1013B000DCF48FEFE81AF80A86019DE0C90ED11C13
:1013C000B601C8010E944506F80183899489978374
:1013D0008683858996899187808787898287808D92
:1013E000918D94878387E2CFB092990AA092980A50
:1013F000C0909A0AD0909B0A84ECE82E8BE0F82EDD
:1014000010E000E00C151D059CF5BE01695F7F4FE3
:10141000C7010E94D504FCE0EF0EF11C882309F4FB
:101420003FC02CE0209FC001219F900D11249C0102
:101430002C53344F790131E0C31AD10857018CE0A5
:10144000A80EB11C0C151D057CF40F5F1F4FB501D4
:10145000C7010E944506B7016E5E7F4FC701069621
:101460000E9445067501EACFD0929B0AC0929A0A63
:1014700060E373E0CE0101960E94FF06BE01695F42
:101480007F4FCE0101960E94C2050E943F04CE010B
:1014900001960E945005CE0107960E9450052ACF62
:1014A0000F5F1F4FAFCF9FEFE91AF90A44CF6DECE2
:1014B00072E0E0CFDF92EF92FF920F931F93CF93F2
:1014C000DF93CDB7DEB762970FB6F894DEBF0FBEDD
:1014D000CDBFBC01CE0101960E945C06BE016F5FCC
:1014E0007F4FCE010D960E94F207CE0101960E9419
:1014F00050056AE172E0CE010D960E94C004882377
:10150000D1F088E493E00E9431048FE693E00E94DA
:101510003104CE010D960E94500562960FB6F894E4
:10152000DEBF0FBECDBFDF91CF911F910F91FF9016
:10153000EF90DF900895BE01635F7F4FCE01079665
:101540000E945C06CE0107960E94AA0404EC1BE0F0
:10155000F12CE12CD12C80919A0A90919B0AE816EB
:10156000F9061CF5B8016A5F7F4FCE0101960E9413
:101570005C06CE0101960E94AA04BE01695F7F4FFE
:10158000CE0101960E94D504882329F0C8010E944B
:101590003F04DD24D394CE0101960E9450058FEFC5
:1015A000E81AF80A045F1F4FD6CFD11004C086E8AE
:1015B00093E00E943104CE0107960E945005A9CF06
:1015C000EF92FF920F931F93CF93DF93CDB7DEB7C8
:1015D0002C970FB6F894DEBF0FBECDBFBC01CE0175
:1015E00001960E945C06BE016F5F7F4FCE01079699
:1015F0000E94F207CE0101960E9450056AE172E056
:10160000CE0107960E94C004811108C061EA73E010
:10161000CE0107960E94C0048823C9F010929B0A4D
:1016200010929A0A8CEA93E00E943104CE01079648
:101630000E9450052C960FB6F894DEBF0FBECDBFAA
:10164000DF91CF911F910F91FF90EF90089563EC80
:1016500073E0CE0107960E94C004882301F102E4E2
:101660001BE0F12CE12C8091980A9091990AE816E0
:10167000F90674F4F80186819781029718F4C8017D
:101680000E948503FFEFEF1AFF0A035F1F4FEBCFA6
:101690001092990A1092980A8BEC93E0C5CF87EECE
:1016A00093E0C2CFEF92FF920F931F93CF93DF93FC
:1016B000CDB7DEB72C970FB6F894DEBF0FBECDBF07
:1016C000BC01CE0101960E945C06BE016F5F7F4F98
:1016D000CE0107960E94F207CE0101960E945005A6
:1016E0006AE172E0CE0107960E94C004811108C031
:1016F00061EA73E0CE0107960E94C004882321F1BD
:1017000085E294E00E94310404EC1BE0F12CE12C12
:1017100080919A0A90919B0AE816F90684F589E36C
:1017200094E00E94A703C8010E9435028CE394E074
:101730000E94A703C80106960E943F048FEFE81A93
:10174000F80A045F1F4FE4CF63EC73E0CE01079605
:101750000E94C004882309F46BC080E494E00E94D6
:1017600031048091980A9091990A02E41BE0F12CCF
:10177000E12C892BA9F481E594E00E943104CE018B
:1017800007960E9450052C960FB6F894DEBF0FBE48
:10179000CDBFDF91CF911F910F91FF90EF900895F2
:1017A0008091980A9091990AE816F90644F789E31E
:1017B00094E00E94A703B801CE0101960E945C0646
:1017C000CE0101960E943502CE0101960E9450057D
:1017D0008FE594E00E94A703F80166817781CE012E
:1017E00001960E941007CE0101960E943502CE019B
:1017F00001960E94500582E694E00E94A703F8013A
:1018000060857185072E000C880B990B97FF0CC023
:101810000E94F80382EF98E00E943104FFEFEF1A74
:10182000FF0A035F1F4FBCCF4AE00E94B403F2CF10
:1018300089E694E0A2CFAF92BF92CF92DF92EF926F
:10184000FF920F931F93CF93DF93CDB7DEB76297CD
:101850000FB6F894DEBF0FBECDBFBC01CE0101961E
:101860000E945C06BE016F5F7F4FCE010D960E9405
:10187000F207CE0101960E9450056AE172E0CE01A6
:101880000D960E94C00402E41BE0F12CE12C882399
:1018900009F4ADC08EEA94E00E9431048FEC94E02C
:1018A0000E9431048CC06801B801CE0101960E94EB
:1018B0005C06BE01635F7F4FCE0101960E94D50496
:1018C000B82ECE0101960E945005035F1F4FBB202A
:1018D00009F48AC08DE08E9D80018F9D100D11242A
:1018E0000E5B144FF8018681978197FD05C0823009
:1018F00091052CF0029749F189EF94E0D1CFB60120
:10190000CE0101960E945C06BE016F5F7F4FCE0143
:1019100007960E945C0660EE74E0CE0107960E9476
:10192000AC050E943502CE0107960E945005CE01FB
:1019300001960E945005F8018285882319F087EAF4
:1019400094E0AECF8AEA94E0ABCF80850E94EA01B2
:10195000F80194878387C6010E949603BC01CE01DB
:1019600001960E94F605BE016F5F7F4FCE010D9676
:101970000E94A606CE0101960E945005B601CE0136
:1019800001960E945C06BE016F5F7F4FCE010796F5
:101990000E945C0669EE74E0CE0107960E94AC05D9
:1019A0000E943502CE0107960E945005CE01019695
:1019B0000E945005C6010E9496030E941904CE01A0
:1019C0000D960E94500562960FB6F894DEBF0FBECA
:1019D000CDBFDF91CF911F910F91FF90EF90DF90DE
:1019E000CF90BF90AF900895FFEFEF1AFF0A80915C
:1019F000980A9091990AE816F9060CF454CFA09031
:101A00009A0AB0909B0A04EC1BE0F12CE12CEA143A
:101A1000FB0474F5C801845C9B406C01BE01635FEC
:101A20007F4FC8010E94D504045F1F4F8823E1F057
:101A3000B6016653744FCE0101960E945C066AE1BE
:101A400072E0CE0101960E94C004811118C085E1A8
:101A500095E00E94A703CE0101960E943F04CE01AB
:101A600001960E945005ABCF9FEFE91AF90ACFCF3C
:101A70006AE172E0CE0101960E94FF06E0CF8BE1A1
:101A800095E00E943104EBCF9F92AF92BF92CF922C
:101A9000DF92EF92FF920F931F93CF93DF93CDB717
:101AA000DEB76E970FB6F894DEBF0FBECDBF8C01C8
:101AB000BC01CE0101960E945C06BE016F5F7F4FA4
:101AC000CE0143960E94F207CE0101960E94500576
:101AD0004F89588DB801CE0149960E94AA07CE01C0
:101AE00049960E944D046AE172E0CE0143960E943D
:101AF000C004811168C06AE172E0CE0149960E947B
:101B0000C004811160C082E4E82E8BE0F82E6701EA
:101B100010E000E0A090980AB090990A0A151B0501
:101B20000CF00CC1B601CE0101960E945C06BE010C
:101B30006D5E7F4FCE0101960E94D504982ECE0196
:101B400001960E9450058DE0C80ED11C992009F421
:101B500015C1BE01675E7F4FCE010D960E945C06E7
:101B6000BE016D5E7F4FCE0107960E945C06D12CB0
:101B7000C12CB701CE0101960E945C06BE01695FCF
:101B80007F4FCE0101960E94D504182FCE010196F9
:101B90000E945005112309F4D9C08DE08C9D80016D
:101BA0008D9D100D11240E5B144FF80186819781D5
:101BB00097FD06C08230910544F1029709F485C073
:101BC00089EF94E07FC08EE295E00E9431048BE5BE
:101BD00095E00E943104CE0149960E945005CE0145
:101BE00043960E9450056E960FB6F894DEBF0FBE66
:101BF000CDBFDF91CF911F910F91FF90EF90DF90BC
:101C0000CF90BF90AF909F90089567E872E0CE01AB
:101C10000D960E94C004882369F161E0F801808577
:101C20000E945E0181E0F801828767E872E0CE01E0
:101C300001960E94FF06BE016F5F7F4FCE0107969F
:101C40000E94A606CE0101960E945005BE01695F62
:101C50007F4FCE0101960E945C0664E775E0CE01DD
:101C600001960E94AC050E943F04CE0101960E949D
:101C700050055CC063E872E0CE010D960E94C0047E
:101C80008823F1F0C7010E94850363E872E0CE016A
:101C900001960E94FF06BE016F5F7F4FCE0107963F
:101CA0000E94A606CE0101960E945005BE01695F02
:101CB0007F4FCE0101960E945C066CE775E0CFCFA6
:101CC00085E895E00E94310431C080850E94EA01D8
:101CD000F80194878387C7010E949603BC01CE0157
:101CE00001960E94F605BE016F5F7F4FCE010796F9
:101CF0000E94A606CE0101960E945005BE01695FB2
:101D00007F4FCE0101960E945C066DEA75E0CE0120
:101D100001960E94AC050E943502CE0101960E94F8
:101D20005005C7010E9496030E941904CE01079630
:101D30000E945005CE010D960E945005BE01675EBF
:101D40007F4FCE0143960E94A60645CFFFEFCF1AE4
:101D5000DF0A8DE0E80EF11CCA14DB040CF409CF95
:101D60006DEB75E0CE0101960E94FF06BE01695F32
:101D70007F4FCE0101960E94C20575CF0F5F1F4FA6
:101D8000C9CECF92DF92EF92FF921F93CF93DF9352
:101D9000CDB7DEB72C970FB6F894DEBF0FBECDBF20
:101DA000BC01CE0107960E945C06CE0107960E94F8
:101DB0004D04EF80F884E114F10471F0F701819192
:101DC0007F01882349F0082E000C990B0E944118CE
:101DD000F70131978083F2CF69ED75E0CE0101966E
:101DE0000E94FF064D815E818B859C858417950737
:101DF00070F08F819885009751F069817A81611523
:101E0000710529F00E946D1811E0892B09F010E08E
:101E1000CE0101960E945005112369F141E050E086
:101E2000BE01695F7F4FCE0101960E94AA0789819A
:101E30009A81C12CD12C7601009719F00E948C1543
:101E40006B01CE0101960E945005F6E3CF0ED11C26
:101E5000CE0107960E945005C6012C960FB6F89445
:101E6000DEBF0FBECDBFDF91CF911F91FF90EF90EE
:101E7000DF90CF9008958F819885009749F00E9458
:101E80008C156B0177FFE4CFCC24CA94DC2CE0CF17
:101E900060E070E0CB01F5CFAF92BF92CF92DF92BE
:101EA000EF92FF920F931F93CF93DF93CDB7DEB7DF
:101EB000AB970FB6F894DEBF0FBECDBF8C01BC014F
:101EC000CE0101960E945C06BE016F5F7F4FCE017E
:101ED00044960E94F207CE0101960E945005488D5B
:101EE000598DB801CE014A960E94AA07CE014A96A2
:101EF0000E944D04BE01665E7F4FCE0101960E9496
:101F00005C06BE016F5F7F4FCE0180960E94F20794
:101F1000CE0101960E9450054CA15DA1BE01665EF6
:101F20007F4FCE0186960E94AA07CE0186960E9418
:101F30004D046AE172E0CE0144960E94C004811112
:101F400014C06AE172E0CE0180960E94C004811143
:101F50000CC06AE172E0CE0186960E94C00402E4E1
:101F60001BE0F12CE12C882341F08BED95E00E94E1
:101F7000310494C08FEFE81AF80A8091980A909182
:101F8000990AE816F9060CF0AAC05801B801CE016A
:101F900001960E945C06BE016C5E7F4FCE010196E9
:101FA0000E94D504D82ECE0101960E945005035FF1
:101FB0001F4FDD20F9F2CE0180960E9465068C014C
:101FC00084E196E00330110591F2CE0186960E94DD
:101FD000C10E6C018DE296E0D7FCC9CFBE016C5EEC
:101FE0007F4FCE010E960E945C069601A801BE01AD
:101FF000625F7F4FCE0101960E942D07BE016F5F89
:102000007F4FC5010E9405058DE08E9DF0018F9DDB
:10201000F00D1124EE5BF44F8F81988597838683B2
:1020200089859A85918780878B8582878C859D8518
:1020300094878387CE0101960E945005CE010E96AB
:102040000E94500563E872E00230110528F002306A
:10205000110589F465E476E0CE0101960E94FF0641
:10206000BE016F5F7F4FCE0144960E94A606CE014F
:1020700001960E94500567E476E0CE0101960E9429
:10208000FF06BE016C5E7F4FCE0101960E94C20525
:102090000E943F04CE0101960E945005CE01869613
:1020A0000E945005CE0180960E945005CE014A96AE
:1020B0000E945005CE0144960E945005AB960FB683
:1020C000F894DEBF0FBECDBFDF91CF911F910F916E
:1020D000FF90EF90DF90CF90BF90AF9008958CE588
:1020E00096E045CFBF92CF92DF92EF92FF920F938F
:1020F0001F93CF93DF93CDB7DEB7ED970FB6F8946C
:10210000DEBF0FBECDBF8C01BC01CE0101960E9487
:102110005C06BE016F5F7F4FCE0186960E94F2077C
:10212000CE0101960E9450054AA55BA5B801CE01DB
:102130008C960E94AA07CE018C960E944D04BE0187
:10214000645D7F4FCE0101960E945C06BE016F5F09
:102150007F4FCE01C2960E94F207CE0101960E94E7
:1021600050054EA95FA9BE01645D7F4FCE01C896A0
:102170000E94AA07CE01C8960E944D046AE172E04F
:10218000CE0186960E94C004811110C06AE172E0FF
:10219000CE01C2960E94C004811108C06AE172E0BB
:1021A000CE01C8960E94C004882341F18BE796E0D7
:1021B0000E94310480EB96E00E943104CE01C89663
:1021C0000E945005CE01C2960E945005CE018C9609
:1021D0000E945005CE0186960E945005ED960FB6DE
:1021E000F894DEBF0FBECDBFDF91CF911F910F914D
:1021F000FF90EF90DF90CF90BF900895BE01685C94
:102200007F4FCE0180960E945C06BE016E5C7F4FC0
:10221000CE014A960E945C06BE016A5D7F4FCE01E8
:1022200044960E945C06E090980AF090990A82E435
:10223000C82E8BE0D82E10E000E08AE0E816F1040A
:102240009CF085ED96E00E943104CE0144960E94F8
:102250005005CE014A960E945005CE0180960E94FC
:102260005005ACCF0F5F1F4F0E151F05CCF4B60104
:10227000CE0101960E945C06BE016C5E7F4FCE01CE
:1022800001960E94D504B82ECE0101960E945005F9
:10229000EDE0CE0ED11CBB2029F381EF96E0D3CF29
:1022A000CE014A960E9465066C010397A1F467E18E
:1022B00077E0CE0101960E94FF06BE01665E7F4F69
:1022C000CE0101960E94C2050E943F04CE010196F4
:1022D0000E945005BACFCE0180960E94C10E8C019B
:1022E0008DE296E017FDAFCFBE016C5E7F4FCE0151
:1022F0000E960E945C069801A601BE01625F7F4FA8
:10230000CE0101960E942D078DE08E9D80018F9D4C
:10231000100D11240E5B144FBE016F5F7F4FC8017B
:102320000E9405058F819885F801978386838985AA
:102330009A85918780878B8582878C859D859487F8
:102340008387CE0101960E945005CE010E960E9411
:102350005005FFEFEF1AFF0AF092990AE092980AEF
:1023600063E872E082E0C816D10430F0E2E0CE16F5
:10237000D10489F465E476E0CE0101960E94FF065F
:10238000BE016F5F7F4FCE0144960E94A606CE012C
:1023900001960E945005B601CE010E960E941007CC
:1023A00061E377E0CE0101960E94FF06BE016C5EFC
:1023B0007F4FCE0101960E94C2056FE574E00E9436
:1023C000AC05BE01625F7F4F0E94C20562EF78E0FC
:1023D0000E94AC050E943F04CE0101960E94500568
:1023E000CE010E960E94500530CF0F931F93CF93CE
:1023F000DF93CDB7DEB762970FB6F894DEBF0FBE9E
:10240000CDBF8C010E944D04F80184819581892BF8
:1024100009F441C0C8010E94AA04B801CE01019686
:102420000E945C06BE016F5F7F4FCE010D960E9439
:10243000F207CE0101960E945005CE010D960E9432
:10244000AA0449895A89B801CE0107960E94AA07B1
:10245000CE0107960E944D0467E477E0CE010D9609
:102460000E94C004882311F1BE01695F7F4FCE0135
:1024700001960E945C06CE0101960E94440DCE0199
:1024800001960E945005CE0107960E945005CE018C
:102490000D960E94500562960FB6F894DEBF0FBEEF
:1024A000CDBFDF91CF911F910F9108956BE477E03D
:1024B000CE010D960E94C004882361F0BE01695FC1
:1024C0007F4FCE0101960E945C06CE0101960E94CC
:1024D0001B0CD5CF6FE477E0CE010D960E94C004AF
:1024E000882361F0BE01695F7F4FCE0101960E9493
:1024F0005C06CE0101960E94520BC1CF65E577E0E4
:10250000CE010D960E94C004882361F0BE01695F70
:102510007F4FCE0101960E945C06CE0101960E947B
:10252000E00AADCF6BE577E0CE010D960E94C004C6
:10253000882361F0BE01695F7F4FCE0101960E9442
:102540005C06CE0101960E945A0A99CF63E677E0B5
:10255000CE010D960E94C004882361F0BE01695F20
:102560007F4FCE0101960E945C06CE0101960E942B
:10257000721085CF6DE677E0CE010D960E94C00403
:10258000882361F0BE01695F7F4FCE0101960E94F2
:102590005C06CE0101960E94470971CF6AE777E099
:1025A000CE010D960E94C004882361F0BE01695FD0
:1025B0007F4FCE0101960E945C06CE0101960E94DB
:1025C0004C0F5DCF65E47AE0CE010D960E94C00409
:1025D000882369F187E897E00E94310487E997E052
:1025E0000E9431048CEC97E00E94310481E098E075
:1025F0000E9431048FE398E00E9431048DE798E057
:102600000E9431048BEA98E00E94310484EF98E044
:102610000E9431048FE199E00E9431048AE599E03B
:102620000E94310483E999E00E9431042CCF68ECC8
:1026300079E0CE010D960E94C004882361F0BE01AE
:10264000695F7F4FCE0101960E945C06CE01019624
:102650000E94510814CF8FEC99E00E94A703CE018D
:102660000D960E943F0485EE99E0DECF1F920F92F7
:102670000FB60F9211242F933F938F939F93AF9395
:10268000BF938091A10A9091A20AA091A30AB09150
:10269000A40A3091A00A23E0230F2D3758F50196A4
:1026A000A11DB11D2093A00A8093A10A9093A20AB4
:1026B000A093A30AB093A40A80919C0A90919D0ACA
:1026C000A0919E0AB0919F0A0196A11DB11D809311
:1026D0009C0A90939D0AA0939E0AB0939F0ABF9173
:1026E000AF919F918F913F912F910F900FBE0F90BF
:1026F0001F90189526E8230F0296A11DB11DD2CF79
:102700001F920F920FB60F9211240BB60F922F93B8
:102710003F934F935F936F937F938F939F93AF9369
:10272000BF93EF93FF9385EA9AE00E94C502FF9161
:10273000EF91BF91AF919F918F917F916F915F9139
:102740004F913F912F910F900BBE0F900FBE0F90A6
:102750001F9018951F920F920FB60F9211240BB66F
:102760000F922F938F939F93EF93FF93E091B50A6E
:10277000F091B60A8081E091BB0AF091BC0A82FD1B
:102780001DC090818091BE0A8F5F8F732091BF0A18
:10279000821741F0E091BE0AF0E0EB55F54F958FBE
:1027A0008093BE0AFF91EF919F918F912F910F908F
:1027B0000BBE0F900FBE0F901F9018958081F2CF27
:1027C000CF93DF93C4ECDBE02D97CE010E94500540
:1027D0008BE0C234D807C1F7CCE2DDE02C97CE0104
:1027E00006960E945005CE010E9450058BE0C43C25
:1027F000D807A1F7DF91CF910895CF92DF92EF92A2
:10280000FF920F931F93CF93DF931092A80A109219
:10281000A70A88EE93E0A0E0B0E08093A90A909325
:10282000AA0AA093AB0AB093AC0A8AE092E0909314
:10283000A60A8093A50A85EC90E09093B20A809353
:10284000B10A84EC90E09093B40A8093B30A80ECD0
:1028500090E09093B60A8093B50A81EC90E0909353
:10286000B80A8093B70A82EC90E09093BA0A8093FA
:10287000B90A86EC90E09093BC0A8093BB0A109250
:10288000BE0A1092BF0A1092C00A1092C10AC4EC8C
:10289000DBE06AE172E0CE010E94FF066AE172E0CD
:1028A000CE0106960E94FF062C968DE0CC32D8070A
:1028B00081F7C2E4DBE004EC1BE083E0C82ED12CFE
:1028C000EE24EA94FE2C6AE172E0CE010E94FF063B
:1028D000DF82CE82F986E8861A861C861B862D96B4
:1028E0000C171D0781F7DF91CF911F910F91FF907A
:1028F000EF90DF90CF900895CF93DF93CDB7DEB701
:102900002C970FB6F894DEBF0FBECDBF789484B578
:10291000826084BD84B5816084BD85B5826085BDDB
:1029200085B5816085BD80916E00816080936E0069
:10293000109281008091810082608093810080915B
:10294000810081608093810080918000816080930C
:1029500080008091B10084608093B1008091B000CC
:1029600081608093B000809191008260809391009B
:1029700080919100816080939100809190008160AE
:10298000809390008091A10082608093A10080914B
:10299000A10081608093A1008091A000816080935C
:1029A000A00080912101826080932101809121010A
:1029B00081608093210180912001816080932001BA
:1029C00080917A00846080937A0080917A0082609E
:1029D00080937A0080917A00816080937A00809160
:1029E0007A00806880937A001092C100E091B50A65
:1029F000F091B60A82E08083E091B10AF091B20AC8
:102A00001082E091B30AF091B40A8FEC80831092A7
:102A1000BD0AE091B90AF091BA0A86E08083E0919C
:102A2000B70AF091B80A808180618083E091B70A8B
:102A3000F091B80A808188608083E091B70AF091B4
:102A4000B80A808180688083E091B70AF091B80A63
:102A500080818F7D80838AE49AE00E94310482E63F
:102A600095E00E94310486ED94E00E9431048CE8E8
:102A700094E00E9431048AE094E00E94310486E7E9
:102A800093E00E94310487EB96E00E9431048CE1D0
:102A900093E00E94310489E69AE00E9431048AE8BA
:102AA0009AE00E94310485E49AE00E94310485EAAC
:102AB0009AE00E94AF02892B61F16AE172E0CE01D7
:102AC00007960E94FF060E94610297FD0FC08A30A0
:102AD000910561F089831A8241E050E0BE016F5F89
:102AE0007F4FCE0107960E948005EDCFBE01695F42
:102AF0007F4FCE0101960E945C06CE0101960E9496
:102B0000F511CE0101960E945005CE0107960E9454
:102B100050050E945403CBCF1F93FC0199278827AF
:102B2000BC01E89411911032E9F3193010F01E3015
:102B3000C8F31B3251F01D3249F4689406C00E945C
:102B4000BE15610F711D811D911D119110531A3019
:102B5000B0F33EF490958095709561957F4F8F4FBF
:102B60009F4F1F910895BB274A3031F4992322F4D7
:102B7000BDE2909581959F4F0C94D415592F482F05
:102B8000372F262F660F771F881F991F660F771F15
:102B9000881F991F620F731F841F951F660F771F71
:102BA000881F991F0895BB27FB015527AA27880F67
:102BB000991FAA1FA41710F0A41B83955051B9F7B1
:102BC000A05DAA3308F0A95DA193009779F7B11130
:102BD000B1931192CB010C94F61591110C94061639
:102BE000803219F089508550C8F70895DC01FC0146
:102BF000672F71917723E1F7329704C07C916D9331
:102C000070836291AE17BF07C8F30895992788278C
:102C10000895A1E21A2EAA1BBB1BFD010DC0AA1F1D
:102C2000BB1FEE1FFF1FA217B307E407F50720F035
:102C3000A21BB30BE40BF50B661F771F881F991FB0
:102C40001A9469F760957095809590959B01AC01F9
:102C5000BD01CF010895EE0FFF1F881F8BBF0790A6
:102C6000F691E02D19940F931F93CF93DF93823049
:102C7000910510F482E090E0E0912E0DF0912F0D7F
:102C800030E020E0B0E0A0E0309799F42115310564
:102C900009F44AC0281B390B24303105D8F58A8144
:102CA0009B816115710589F1FB0193838283FE018C
:102CB00011C0408151810281138148175907E0F00A
:102CC0004817590799F4109761F012960C931297D0
:102CD00013961C933296CF01DF91CF911F910F91E4
:102CE000089500932E0D10932F0DF4CF211531056B
:102CF00051F04217530738F0A901DB019A01BD01D9
:102D0000DF01F801C1CFEF01F9CF90932F0D809330
:102D10002E0DCDCFFE01E20FF31F81939193225030
:102D2000310939832883D7CF20912C0D30912D0D77
:102D3000232B41F4209102023091030230932D0D98
:102D400020932C0D209100023091010221153105B4
:102D500041F42DB73EB74091040250910502241B67
:102D6000350BE0912C0DF0912D0DE217F307A0F437
:102D70002E1B3F0B2817390778F0AC014E5F5F4FD1
:102D80002417350748F04E0F5F1F50932D0D4093C9
:102D90002C0D819391939FCFF0E0E0E09CCFCF93F7
:102DA000DF930097E9F0FC01329713821282A09121
:102DB0002E0DB0912F0DED0130E020E01097A1F421
:102DC00020813181820F931F20912C0D30912D0D88
:102DD0002817390709F061C0F0932D0DE0932C0DF1
:102DE000DF91CF910895EA01CE17DF07E8F54A8118
:102DF0005B819E0141155105B1F7E901FB83EA832F
:102E000049915991C40FD51FEC17FD0761F48081DA
:102E100091810296840F951FE901998388838281AD
:102E200093819B838A83F0E0E0E012968D919C91E0
:102E300013970097B9F52D913C911197CD0102960A
:102E4000820F931F20912C0D30912D0D28173907DB
:102E500039F6309751F510922F0D10922E0DB09338
:102E60002D0DA0932C0DBCCFD383C2834081518103
:102E7000840F951FC817D90761F44E5F5F4F888193
:102E80009981480F591F518340838A819B81938385
:102E900082832115310509F0B0CFF0932F0DE09317
:102EA0002E0D9ECFFD01DC01C0CF13821282D7CF41
:102EB0004F925F926F927F928F929F92AF92BF924A
:102EC000CF92DF92EF92FF920F931F93CF93DF93F6
:102ED0008C01009799F4CB01DF91CF911F910F9155
:102EE000FF90EF90DF90CF90BF90AF909F908F902A
:102EF0007F906F905F904F900C943316FC01E60F1B
:102F0000F71F9C0122503109E217F30708F4AEC005
:102F1000D901CD91DC911197C617D70720F1C530A3
:102F2000D10578F0CE0104978617970750F0C61B9D
:102F3000D70B2297C193D1936D937C93CF010E94BD
:102F4000CF16C801DF91CF911F910F91FF90EF90A5
:102F5000DF90CF90BF90AF909F908F907F906F90B9
:102F60005F904F9008955B01AC1ABD0A4C018C0E26
:102F70009D1EA0912E0DB0912F0D512C412CF12CA6
:102F8000E12C109731F580912C0D90912D0D881525
:102F9000990509F05CC04616570608F058C08091A4
:102FA000000290910102009741F48DB79EB74091C5
:102FB000040250910502841B950BE817F90708F0ED
:102FC00055C0F0932D0DE0932C0DF90171836083B2
:102FD000B8CF8D919C91119712966C901297139681
:102FE0007C901397A815B90559F56C0142E0C40E01
:102FF000D11CCA14DB0420F1AC014A195B09DA01C7
:103000001296159780F06282738251834083D901B2
:103010006D937C93E114F10471F0D7011396FC9346
:10302000EE9312978ECF22968C0F9D1FF9019183FC
:103030008083F301EFCFF0932F0DE0932E0D81CF1E
:103040004816590608F42C017D01D3019ACFCB0113
:103050000E9433167C01009749F0AE01B8010E942E
:103060004918C8010E94CF1687016BCF10E000E01D
:1030700068CF9111089581548A5108F4805E855A71
:1030800008959111089581568A5108F48052855807
:103090000895FB01DC0102C001900D9241505040A7
:1030A000D8F70895FC018191861721F08823D9F77C
:1030B000992708953197CF010895FB01DC018D9187
:1030C000019080190110D9F3990B0895FB01DC01DF
:1030D00001900D920020E1F70895FB01DC014150C1
:1030E000504030F08D910190801919F40020B9F70B
:1030F000881B990B089511E0CAE2D1E000E006C0F8
:10310000802FFE010E942B162196011DCB32D10784
:1031100080E00807A9F7F894FFCF0000300D800089
:1031200000000000E70208023E023403AF024D0235
:10313000A1020D0A006C6564006D6F746F720073FC
:10314000656E736F72004C4544004D4F544F5200F2
:1031500053454E534F5200554E4B4E4F574E004322
:103160004C4F5345004F50454E00E29D8C20436F1D
:103170006D6D616E642027746F67676C65272069C9
:1031800073206E6565647320746F203C6E616D659D
:103190003E20706172616D657465722E006F6666A7
:1031A000006F6E00F09F948420002073746174653A
:1031B00020697320746F67676C65643A2000E29A37
:1031C000A0EFB88F20466F72202700272C20746F45
:1031D00067676C65206973206E6F742073757070FB
:1031E0006F727465642E00E29D8C2044657669637D
:1031F000652069732063616E6E6F7420666F756EF3
:10320000643A2000E29D8C20436F6D6D616E6420F6
:103210002772656D6F766564657669636527206ED4
:103220006565647320746F203C6E616D653E00556A
:10323000736167653A2072656D6F7665646576695E
:103240006365203C6E616D653E00E29C85204465AF
:10325000766963652069732072656D6F7665643A7F
:103260002000E29D8C20436F6D6D616E64202766A7
:10327000696E646B657927206E6565647320746F71
:10328000203C76616C75653E0055736167653A2038
:1032900066696E646B6579203C76616C75653E008D
:1032A000E29D8C2056616C75652069732063616EA8
:1032B0006E6F7420666F756E642E00646963746946
:1032C0006F6E6172790044696374696F6E617279BF
:1032D00020697320636C65617265642E0064657695
:1032E0006963657300F09FA7B944657669636520DB
:1032F0006C69737420697320636C65617265642EF8
:1033000000E29D8C20556E76616C696420636C656B
:10331000617220617267756D656E742E20557361E0
:1033200067653A20636C656172205B6469637469E8
:103330006F6E6172797C646576696365735D004464
:10334000696374696F6E61727920636F6E74656E04
:10335000743A002D2000203D2000204C69737465D4
:103360006420446576696365733A004C6973742020
:10337000697320656D707479002028002C205069D5
:103380006E3A00E29D8C20556E76616C6964207007
:1033900072696E7420617267756D656E742E20554A
:1033A000736167653A207072696E74205B6469634B
:1033B00074696F6E6172797C646576696365735D4B
:1033C000004F4E004F464600E29D8C20436F6D6DCE
:1033D000616E64202767657427206E6565647320BD
:1033E000746F203C6B65793E0055736167653A20C8
:1033F000676574203C6B65793E0020737461746569
:103400003A20002053656E736F722076616C75658B
:103410003A2000E29AA0EFB88F20556E76616C6971
:10342000642064657669636520747970652E00F0A8
:103430009F948E2000E29D8C2043616E6E6F7420FD
:10344000666F756E642E2000E29D8C20436F6D6D5B
:10345000616E64202773657427206E656564732030
:10346000746F203C6B65793E20616E64203C766110
:103470006C75653E0055736167653A20736574200D
:103480003C6B65793E203C76616C75653E00206939
:1034900073206F6E2E00206973206F66662E00E227
:1034A0009AA0EFB88F20506172616D6574657220CB
:1034B0006D75737420626520276F6E27206F7220F0
:1034C000276F6666272E002073656E736F722076F5
:1034D000616C75653A2000E29D8C204465766963D5
:1034E000652069732063616E6E6F742066696E6417
:1034F0003A20004100E29D8C20436F6D6D616E6447
:10350000202775706461746564657669636527203A
:103510006E6565647320746F203C6E616D653E203E
:103520003C747970653E203C70696E3E2E00E29DD1
:103530008C20556E76616C6964206465766963657C
:1035400020747970652E00E29D8C20556E76616C3A
:1035500069642070696E206E756D6265722E003030
:103560000020446576696365206973207570646125
:103570007465643A2000E29D8C204E6F206465766D
:1035800069636520666F756E6420746F2075706462
:103590006174652E00E29D8C20436F6D6D616E64D9
:1035A000202761646464657669636527206E6565BC
:1035B000647320746F203C6E616D653E203C7479AD
:1035C00070653E203C70696E3E0055736167653AD8
:1035D00020616464646576696365203C6E616D6535
:1035E0003E203C747970653E203C70696E3E00E27E
:1035F0009AA0EFB88F20446576696365206C697383
:10360000742069732066756C6C2E00E29AA0EFB886
:103610008F205468697320646576696365206973D7
:1036200020616C7265616479206C69737465642EC5
:1036300000E29D8C20556E76616C6964206465762D
:1036400069636520747970653A2000E29C852044A6
:1036500065766963652069732061646465643A20F6
:103660000073657400676574007072696E7400633E
:103670006C6561720066696E646B65790061646493
:103680006465766963650072656D6F7665646576FD
:103690006963650075706461746564657669636506
:1036A0000020436F6D6D616E6473204C6973743AD2
:1036B0000020736574203C6B65793E203C76616C1C
:1036C00075653E202020202020202D205365742069
:1036D0006F72207570646174652061206B65792F4D
:1036E00076616C75650020676574203C6B65793E7A
:1036F0002020202020202020202020202020202DBD
:10370000204765742076616C7565206F7220646552
:103710007669636520737461746500207072696EE8
:1037200074205B64696374696F6E6172797C64652F
:1037300076696365735D202D205072696E74206414
:10374000696374696F6E617279206F722064657647
:10375000696365206C6973740020636C6561722015
:103760005B64696374696F6E6172797C64657669A4
:103770006365735D202D20436C656172206469630D
:1037800074696F6E617279206F7220646576696307
:1037900065206C697374002066696E646B657920BE
:1037A0003C76616C75653E20202020202020202062
:1037B0002D2046696E64206B6579732062792076CE
:1037C000616C756500206164646465766963652079
:1037D0003C6E616D653E203C747970653E203C70A6
:1037E000696E3E202D20416464206E6577206465FB
:1037F000766963652028747970653A206C65647C0D
:103800006D6F746F727C73656E736F7229002072B6
:10381000656D6F7665646576696365203C6E616D84
:10382000653E20202020202D2052656D6F7665207A
:1038300061206465766963650020757064617465F4
:10384000646576696365203C6E616D653E203C74FD
:103850007970653E203C70696E3E202D2055706465
:103860006174652064657669636520747970652F7D
:1038700070696E0020746F67676C65203C6E616DC7
:10388000653E20202020202020202020202D205494
:103890006F67676C65204C45442F4D4F544F522045
:1038A000646576696365207374617465002068657A
:1038B0006C7020202020202020202020202020206C
:1038C0002020202020202D2053686F772068656CF1
:1038D00070206C697374206F6E2041726475696E1C
:1038E0006F00746F67676C6500E29D8C20556E6B8E
:1038F0006E6F776E20436F6D6D616E643A20005677
:10390000616C696420436F6D6D616E64733A2073FE
:1039100065742C206765742C207072696E742C207D
:10392000636C6561722C2066696E646B65792C200E
:103930006164646465766963652C2072656D6F7679
:10394000656465766963652C20757064617465646F
:1039500065766963652C20746F67676C652C2068D9
:10396000656C7000436F6E6E656374696E67206985
:10397000732072656164792120436F6D6D616E649F
:10398000733A007570646174656465766963652077
:103990003C6E616D653E203C747970653E203C70E4
:1039A000696E3E00746F67676C65203C6E616D6583
:0239B0003E00D7
:020000040003F7
:10E000000D9489F10D94B2F10D94B2F10D94B2F129
:10E010000D94B2F10D94B2F10D94B2F10D94B2F1F0
:10E020000D94B2F10D94B2F10D94B2F10D94B2F1E0
:10E030000D94B2F10D94B2F10D94B2F10D94B2F1D0
:10E040000D94B2F10D94B2F10D94B2F10D94B2F1C0
:10E050000D94B2F10D94B2F10D94B2F10D94B2F1B0
:10E060000D94B2F10D94B2F10D94B2F10D94B2F1A0
:10E070000D94B2F10D94B2F10D94B2F10D94B2F190
:10E080000D94B2F10D94B2F10D94B2F10D94B2F180
:10E090000D94B2F10D94B2F10D94B2F10D94B2F170
:10E0A0000D94B2F10D94B2F10D94B2F10D94B2F160
:10E0B0000D94B2F10D94B2F10D94B2F10D94B2F150
:10E0C0000D94B2F10D94B2F10D94B2F10D94B2F140
:10E0D0000D94B2F10D94B2F10D94B2F10D94B2F130
:10E0E0000D94B2F141546D656761323536300041AF
:10E0F000726475696E6F206578706C6F72657220DE
:10E1000073746B3530305632206279204D4C530099
:10E11000426F6F746C6F616465723E004875683F52
:10E1200000436F6D70696C6564206F6E203D200048
:10E130004350552054797065202020203D20005FF9
:10E140005F4156525F415243485F5F3D2000415658
:10E1500052204C696243205665723D20004743437C
:10E160002056657273696F6E203D20004350552024
:10E1700049442020202020203D20004C6F7720663D
:10E18000757365202020203D20004869676820665F
:10E190007573652020203D200045787420667573D6
:10E1A00065202020203D20004C6F636B2066757336
:10E1B000652020203D20004D617220203720323024
:10E1C000313300312E362E3800342E332E350056A2
:10E1D00023202020414444522020206F7020636F70
:10E1E00064652020202020696E73747275637469E1
:10E1F0006F6E2061646472202020496E74657272B3
:10E20000757074006E6F20766563746F7200726A49
:10E210006D702020006A6D70200057686174207056
:10E220006F72743A00506F7274206E6F7420737541
:10E2300070706F72746564004D7573742062652030
:10E2400061206C6574746572002000577269747483
:10E25000696E672045450052656164696E672045B7
:10E26000450045452065727220636E743D00504F35
:10E27000525400303D5A65726F2061646472003FF1
:10E280003D43505520737461747300403D454550C3
:10E29000524F4D207465737400423D426C696E6B41
:10E2A000204C454400453D44756D70204545505215
:10E2B0004F4D00463D44756D7020464C415348001B
:10E2C000483D48656C70004C3D4C69737420492F83
:10E2D0004F20506F72747300513D51756974005234
:10E2E0003D44756D702052414D00563D73686F7707
:10E2F00020696E7465727275707420566563746FF0
:10E30000727300593D506F727420626C696E6B00BD
:10E310002A0011241FBECFEFD1E2DEBFCDBF01E046
:10E320000CBF12E0A0E0B2E0EEE1FDEF03E00BBFB6
:10E3300002C007900D92A030B107D9F712E0A0E01B
:10E34000B2E001C01D92AE30B107E1F70F9460F367
:10E350000D948DFE01E20EBF0FEF0DBF11241FBE05
:10E360000D9460F30D9400F020E030E040ED57E0B4
:10E3700005C0FA013197F1F72F5F3F4F2817390792
:10E38000C0F308959C01260F311DC901A0E0B0E043
:10E390002F5F3F4FABBFFC018791882361F08093D3
:10E3A000C6008091C00086FFFCCF8091C0008064D1
:10E3B0008093C000EACF08958DE08093C6008091DD
:10E3C000C00086FFFCCF8091C00080648093C000B5
:10E3D0008AE08093C6008091C00086FFFCCF8091C8
:10E3E000C00080648093C00008950F94C2F10F9420
:10E3F000DCF10895FC019081992359F09093C600B7
:10E400008091C00086FFFCCF8091C0008064809323
:10E41000C0003196992379F70895282F982F929567
:10E420009F70892F805D8A3308F0895F8093C600D2
:10E430008091C00086FFFCCF8091C00080648093F3
:10E44000C000822F8F70982F905D9A3308F0995FEB
:10E450009093C6008091C00086FFFCCF8091C000E1
:10E4600080648093C00008959C01FB01853691056E
:10E470001CF46330710594F0C90164E670E00F94F8
:10E480002EFE605D7F4F6093C6008091C00086FFC6
:10E49000FCCF8091C00080648093C0002B30310598
:10E4A00014F43297B4F0C90164E670E00F942EFEC4
:10E4B0006AE070E00F942EFE605D7F4F6093C600AF
:10E4C0008091C00086FFFCCF8091C0008064809363
:10E4D000C000C9016AE070E00F942EFEC0968093E0
:10E4E000C6008091C00086FFFCCF8091C000806490
:10E4F0008093C00008951F93182F8EE692EE60E07F
:10E500000F94C2F11093C6008091C00086FFFCCF2B
:10E510008091C00080648093C0000F94DCF11F9153
:10E5200008952F923F924F925F926F927F928F92B7
:10E530009F92AF92BF92CF92DF92EF92FF920F9392
:10E540001F93DF93CF93CDB7DEB762970FB6F894E2
:10E55000DEBF0FBECDBF382E622ECA01DB015C01CB
:10E560006D01772420E2222E2E010894411C511CBB
:10E570008BC081E0A81680E0B80681E0C80680E084
:10E58000D80628F0C601AA27BB270F940DF2BB2797
:10E59000AD2D9C2D8B2D0F940DF28A2D0F940DF225
:10E5A0002092C6008091C00086FFFCCF8091C00001
:10E5B00080648093C0009DE29093C6008091C0006B
:10E5C00086FFFCCF8091C00080648093C0002092C1
:10E5D000C6008091C00086FFFCCF8091C00080649F
:10E5E0008093C00019828601750188249924A1E0D6
:10E5F0003A1651F03A1620F0B2E03B1661F409C029
:10E600000BBFF701779007C0C7010F9477FE782EF4
:10E6100002C0F7017080872D0F940DF22092C60082
:10E620008091C00086FFFCCF8091C0008064809301
:10E63000C000872D8052F401EF70F0708F3520F408
:10E64000E40DF51D708204C0E40DF51D8EE280839B
:10E650000894E11CF11C011D111D0894811C911CE2
:10E6600090E18916910409F0C2CF80E190E0A0E02A
:10E67000B0E0A80EB91ECA1EDB1E198AC2010F9493
:10E68000FAF10F94DCF16A94662009F072CF629679
:10E690000FB6F894DEBF0FBECDBFCF91DF911F91B3
:10E6A0000F91FF90EF90DF90CF90BF90AF909F9031
:10E6B0008F907F906F905F904F903F902F90089534
:10E6C0002F923F924F925F926F927F928F929F9282
:10E6D000AF92BF92CF92DF92EF92FF920F931F9370
:10E6E000DF93CF93CDB7DEB7CD53D1400FB6F894BB
:10E6F000DEBF0FBECDBF01E20EBF0FEF0DBF94B75F
:10E70000F894A89514BE80916000886180936000A1
:10E7100010926000789493FF05C0E0910002F091A0
:10E7200001021995279A2F9A8091C00082608093E8
:10E73000C00080E18093C40088E18093C1000000A4
:10E74000EE24FF24870144E0A42EB12CCC24DD2448
:10E7500024C0C5010197F1F70894E11CF11C011DCB
:10E76000111D21E2E2162EE4F20620E0020720E06D
:10E77000120718F031E0C32ED12CC801B70127ECE5
:10E780003BE140E050E00F9441FE611571058105C9
:10E79000910519F485B1805885B98091C00087FD35
:10E7A00003C0C114D104A9F2A6014F5F5F4FC25E3E
:10E7B000DE4F59834883CE51D140C25EDE4F8881FF
:10E7C0009981CE51D140019711F00D9410FEC05D9A
:10E7D000DE4F19821882C053D14060E0C15DDE4F28
:10E7E0001882CF52D14088249924C35DDE4F19820C
:10E7F0001882CD52D140C05EDE4F188219821A8233
:10E800001B82C052D140CE5CDE4F188219821A8220
:10E810001B82C253D140EE24FF2487010BBFF701B6
:10E8200007911691C45CDE4F19830883CC53D14005
:10E830000D940BFEC25EDE4F28813981CE51D1404E
:10E840002130310509F52091C600C25EDE4F1982E4
:10E850001882CE51D14022C02F5F3F4F4F4F5F4FA4
:10E86000213082E138078AE7480780E0580780F0C6
:10E87000C45CDE4FE881F981CC53D140EF5FFF4F9C
:10E8800019F0EE27FF27099420E030E040E050E047
:10E890008091C00087FFE0CF2091C600C35DDE4FAE
:10E8A00048815981CD52D1404F5F5F4FC35DDE4FEC
:10E8B00059834883CD52D140213209F063C64A3092
:10E8C000510508F05FC60894811C911C53E0851621
:10E8D000910409F059C600E010E018C081E280936D
:10E8E000C6008091C00086FFFCCF8091C00080648C
:10E8F0008093C0002F5F3F4F2931310579F70F9486
:10E90000DCF10F5F1F4F0530110519F020E030E0FA
:10E91000E5CF10920A0210920B0210920C02109294
:10E920000D02109206021092070210920802109235
:10E930000902109202021092030210920402109235
:10E9400005028FEE90EE60E00F94F5F180E191EE1C
:10E9500060E00F94C2F18091C00087FFFCCF9091DE
:10E96000C600903608F09F759032B8F09093C600BC
:10E970008091C00086FFFCCF8091C00080648093AE
:10E98000C000A0E2A093C6008091C00086FFFCCF2B
:10E990008091C00080648093C000983409F4D7C18E
:10E9A0009934B8F4923409F459C1933458F490333B
:10E9B00019F1903308F4E3C59F33A1F1903409F0C5
:10E9C000DEC5BDC0953409F470C1963409F0D7C5D1
:10E9D00098C1923509F42BC2933538F49C3409F46C
:10E9E000F5C1913509F0CBC518C2963509F445C279
:10E9F000993509F0C4C567C483E792EE62E00F94CD
:10EA0000F5F110920602109207021092080210927D
:10EA1000090210920A0210920B0210920C0210923C
:10EA20000D0213C18FE792EE62E00F94F5F18FEEC5
:10EA300090EE60E00F94F5F181E291EE60E00F94CA
:10EA4000C2F187EB91EE60E00F94F5F180E391EE77
:10EA500060E00F94C2F184EE90EE60E00F94F5F167
:10EA60008FE391EE60E00F94C2F186E090E061E008
:10EA700070E00F9434F20F94DCF18DE591EE60E0DC
:10EA80000F94C2F189EC91EE60E00F94F5F18EE401
:10EA900091EE60E00F94C2F183EC91EE60E00F9490
:10EAA000F5F18CE691EE60E00F94C2F18EE10F94E7
:10EAB0000DF288E90F940DF281E00F940DF20F949E
:10EAC000DCF18BE791EE60E00F94C2F119E0E0E039
:10EAD000F0E010935700E4918E2F0F940DF20F94F5
:10EAE000DCF18AE891EE60E00F94C2F1E3E0F0E03F
:10EAF00010935700E4918E2F0F940DF20F94DCF1D8
:10EB000089E991EE60E00F94C2F1E2E0F0E0109349
:10EB10005700E4918E2F0F940DF20F94DCF188EAE8
:10EB200091EE60E00F94C2F1E1E0F0E01093570045
:10EB30001491812F0F940DF20F94DCF107CF8BE825
:10EB400092EE62E00F94F5F18BE492EE60E00F94A8
:10EB5000F5F10F94DCF100E010E019C0C8016F2D51
:10EB60000F947FFEFF2031F489E492EE60E00F9471
:10EB7000C2F10BC0F092C6008091C00086FFFCCFAE
:10EB80008091C00080648093C0000F5F1F4FC80158
:10EB900081519F41A0E0B0E0ABBFFC01F790BAE229
:10EBA000FB1621F0E2E000301E07C1F60F94DCF105
:10EBB0000F94DCF187E592EE60E00F94F5F10F948D
:10EBC000DCF1CC24DD2400E010E01EC0C8010F946D
:10EBD00077FEF82E882331F489E492EE60E00F94FA
:10EBE000C2F10BC08093C6008091C00086FFFCCFAD
:10EBF0008091C00080648093C000FE1419F00894D6
:10EC0000C11CD11C0F5F1F4FC80181519F41A0E063
:10EC1000B0E0ABBFFC01E790FAE2EF1621F022E092
:10EC20000030120799F60F94DCF10F94DCF182E6C4
:10EC300092EE60E00F94C2F1C60161E070E00F94C3
:10EC400034F20F94DCF10F94DCF110920202109276
:10EC50000302109204021092050278CE89E992EE26
:10EC600062E00F94F5F1279A2F9A16C02F9880E052
:10EC700090E0E0EDF7E03197F1F7019684369105E9
:10EC8000C1F72F9A80E090E0E0EDF7E03197F1F7DF
:10EC9000019684369105C1F78091C00087FFE6CFC9
:10ECA0008091C00087FFFCCF64C485EA92EE62E0E9
:10ECB0000F94F5F140910202509103026091040219
:10ECC0007091050281E020E10F9491F2809102029F
:10ECD00090910302A0910402B091050280509F4FD1
:10ECE000AF4FBF4F8093020290930302A0930402A0
:10ECF000B093050280509041A040B04008F426CE69
:10ED0000A4CF83EB92EE62E00F94F5F140910602FE
:10ED100050910702609108027091090280E020E1A1
:10ED20000F9491F28091060290910702A09108023F
:10ED3000B091090280509F4FAF4FBF4F80930602A2
:10ED400090930702A0930802B0930902FFCD80ECD4
:10ED500092EE62E00F94F5F183E792EE60E00F949B
:10ED6000F5F18FE792EE60E00F94F5F18BE892EE0B
:10ED700060E00F94F5F189E992EE60E00F94F5F10F
:10ED800085EA92EE60E00F94F5F183EB92EE60E09D
:10ED90000F94F5F180EC92EE60E00F94F5F187ECC2
:10EDA00092EE60E00F94F5F188ED92EE60E00F9442
:10EDB000F5F18FED92EE60E00F94F5F18AEE92EEB0
:10EDC00060E00F94F5F183E093EEBDCD87EC92EE19
:10EDD00062E00F94F5F181E40F947BF282E40F94EA
:10EDE0007BF283E40F947BF284E40F947BF285E45E
:10EDF0000F947BF286E40F947BF287E40F947BF20E
:10EE000088E40F947BF28AE40F947BF28BE40F94F6
:10EE10007BF28CE40F947BF299CD88ED92EE62E068
:10EE20000F94F5F1772473948824992409C48FED05
:10EE300092EE62E00F94F5F140910A0250910B02BC
:10EE400060910C0270910D0282E020E10F9491F22A
:10EE500080910A0290910B02A0910C02B0910D02D8
:10EE600080509F4FAF4FBF4F80930A0290930B0289
:10EE7000A0930C02B0930D0269CD8AEE92EE62E08F
:10EE80000F94F5F184EE90EE60E00F94F5F18FECC5
:10EE900091EE60E00F94F5F1662477244301CC5D98
:10EEA000DE4F19821882C452D140D401C301B695F5
:10EEB000A79597958795CA5DDE4F88839983AA8326
:10EEC000BB83C652D140CC5DDE4FA881B981C4520C
:10EED000D1401196CC5DDE4FB983A883C452D14096
:10EEE000CD0162E070E00F9434F2B0E2B093C6005E
:10EEF0008091C00086FFFCCF8091C0008064809329
:10EF0000C000EDE2E093C6008091C00086FFFCCF18
:10EF10008091C00080648093C000F0E2F093C6004E
:10EF20008091C00086FFFCCF8091C00080648093F8
:10EF3000C000CA5DDE4FE880F9800A811B81C6529D
:10EF4000D140BB27A12F902F8F2D0F940DF2CA5DBA
:10EF5000DE4F8881C652D1400F940DF2B0E2FB2EF5
:10EF6000F092C6008091C00086FFFCCF8091C00067
:10EF700080648093C0000DE30093C6008091C000C0
:10EF800086FFFCCF8091C00080648093C00010E2B7
:10EF90001093C6008091C00086FFFCCF8091C00016
:10EFA00080648093C0008BBEF3012791C65DDE4F65
:10EFB0002883CA52D140A22EBB24CC24DD2408943D
:10EFC000611C711C811C911C8BBEF3018791282E42
:10EFD0003324442455240894611C711C811C911C09
:10EFE0008BBEF3013791C55DDE4F3883CB52D140E4
:10EFF0000894611C711C811C911C8BBEF30147910C
:10F00000C45DDE4F4883CC52D140ADEFEA2EAFEF66
:10F01000FA2EAFEF0A2FAFEF1A2F6E0C7F1C801E57
:10F02000911E142D032DF22CEE24EA0CFB1C0C1D5A
:10F030001D1D0F940DF220E22093C6008091C000A8
:10F0400086FFFCCF8091C00080648093C000C65DC5
:10F05000DE4F8881CA52D1400F940DF230E23093D6
:10F06000C6008091C00086FFFCCF8091C000806404
:10F070008093C000C45DDE4F8881CC52D1400F9494
:10F080000DF240E24093C6008091C00086FFFCCFA5
:10F090008091C00080648093C000C55DDE4F888190
:10F0A000CB52D1400F940DF250E25093C6008091A4
:10F0B000C00086FFFCCF8091C00080648093C000B8
:10F0C0008FEFE8168FEFF80680E0080780E018075A
:10F0D00031F484E092EE60E00F94C2F1DFC0D80119
:10F0E000C7018070907CA070B0708050904CA040A0
:10F0F000B040D1F52FEF3FE340E050E0E222F322B1
:10F1000004231523CA5DDE4FA880B980CA80DB8046
:10F11000C652D140AE0CBF1CC01ED11EAA0CBB1CD7
:10F12000CC1CDD1C8EE092EE60E00F94C2F1BB2798
:10F13000A12F902F8F2D0F940DF28E2D0F940DF285
:10F1400030E23093C6008091C00086FFFCCF8091F2
:10F15000C00080648093C0004EE34093C60080915D
:10F16000C00086FFFCCF87C08EE09EEFA0E0B0E03D
:10F17000E822F9220A231B239CE0E91694E9F90608
:10F1800090E0090790E0190709F088C0C45DDE4FE0
:10F19000A881CC52D140EA2EFF2400E010E0102FCD
:10F1A0000F2DFE2CEE24C55DDE4FB881CB52D14031
:10F1B000EB0EF11C011D111DD601C501817090706F
:10F1C000A070B070DC0199278827E80EF91E0A1F8D
:10F1D0001B1F20EF30E040E050E0A222B322C42207
:10F1E000D52241E1AA0CBB1CCC1CDD1C4A95D1F7F1
:10F1F000EA0CFB1C0C1D1D1D81E090E0A0E0B0E0BE
:10F20000282239224A225B2235E1220C331C441C7D
:10F21000551C3A95D1F7E20CF31C041D151D57013E
:10F220006801AA0CBB1CCC1CDD1C85E192EE60E0E1
:10F230000F94C2F1C801AA27BB270F940DF2BB2778
:10F24000A12F902F8F2D0F940DF28E2D0F940DF274
:10F2500090E29093C6008091C00086FFFCCF809121
:10F26000C00080648093C000AEE3A093C60080918C
:10F27000C00086FFFCCF8091C00080648093C000F6
:10F28000C601AA27BB270F940DF2BB27AD2D9C2DDD
:10F290008B2D0F940DF28A2D0F940DF20F94DCF14B
:10F2A000CC5DDE4FE881F981C452D140F99709F471
:10F2B0004DCBF4E0EF2EF12C012D112D6E0C7F1CA7
:10F2C000801E911EF2CD83E093EE62E00F94F5F183
:10F2D0008AE192EE60E00F94C2F18091C00087FF56
:10F2E000FCCF1091C6001F751093C6008091C0001E
:10F2F00086FFFCCF8091C00080648093C0000F9493
:10F30000DCF1812F81548A3108F036C1163409F4BA
:10F3100095C0173490F4133409F44EC0143430F40B
:10F320001134F1F0123409F01DC130C0143409F465
:10F3300059C0153409F016C16BC01A3409F4C4C0A1
:10F340001B3438F4173409F48FC0183409F00AC19B
:10F35000A1C01B3409F4D2C01C3409F003C1E8C0B9
:10F360008FEF81B90DC082B1809582B980E090E0C5
:10F37000E0EDF7E03197F1F70196883C9105C1F790
:10F380008091C00087FFEFCF12B8EFC08FEF84B934
:10F390000DC085B1809585B980E090E0E0EDF7E0A3
:10F3A0003197F1F70196883C9105C1F78091C00033
:10F3B00087FFEFCF15B8D9C08FEF87B90DC088B1DF
:10F3C000809588B980E090E0E0EDF7E03197F1F7C3
:10F3D0000196883C9105C1F78091C00087FFEFCF6F
:10F3E00018B8C3C08FEF8AB90DC08BB180958BB9A7
:10F3F00080E090E0E0EDF7E03197F1F70196883C8E
:10F400009105C1F78091C00087FFEFCF1BB8ADC059
:10F410008FEF8DB90DC08EB180958EB980E090E0F0
:10F42000E0EDF7E03197F1F70196883C9105C1F7DF
:10F430008091C00087FFEFCF1EB897C08FEF80BBD1
:10F440000DC081B3809581BB80E090E0E0EDF7E0F6
:10F450003197F1F70196883C9105C1F78091C00082
:10F4600087FFEFCF11BA81C08FEF83BB0DC084B38C
:10F47000809584BB80E090E0E0EDF7E03197F1F714
:10F480000196883C9105C1F78091C00087FFEFCFBE
:10F4900014BA6BC08FEF809301010FC080910201FD
:10F4A00080958093020180E090E0E0EDF7E03197F5
:10F4B000F1F70196883C9105C1F78091C00087FF64
:10F4C000EDCF1092020151C08FEF809304010FC065
:10F4D0008091050180958093050180E090E0E0ED4A
:10F4E000F7E03197F1F70196883C9105C1F78091DB
:10F4F000C00087FFEDCF1092050137C08FEF8093DA
:10F5000007010FC08091080180958093080180E079
:10F5100090E0E0EDF7E03197F1F70196883C910536
:10F52000C1F78091C00087FFEDCF109208011DC088
:10F530008FEF80930A010FC080910B01809580931B
:10F540000B0180E090E0E0EDF7E03197F1F70196F4
:10F55000883C9105C1F78091C00087FFEDCF1092E4
:10F560000B0103C085E292EEEEC98091C00087FFD7
:10F57000FCCF8091C600EAC988E392EEE4C98CE131
:10F5800091EEE1C988249924933011F1943028F444
:10F59000913089F09230B8F408C0953061F195301F
:10F5A000F0F0963009F048C043C02B3109F042C951
:10F5B00091E06BE13FC96227C15DDE4F2883CF52E6
:10F5C000D14092E037C9B22FA0E0622793E032C960
:10F5D000822F90E0A82BB92B622794E02BC92E3004
:10F5E00009F039C3622795E0C05DDE4F19821882A9
:10F5F000C053D1401FC9E1E0F0E0EC0FFD1FC05D3A
:10F60000DE4F08811981C053D140E00FF11F2083E4
:10F610000F5F1F4FC05DDE4F19830883C053D14079
:10F6200062270A171B0709F005C9D80196E002C92D
:10F63000261709F010C303C0973009F0FBC87724E0
:10F640009981933109F412C19431C8F4963009F4C8
:10F65000D8C0973050F4923009F406C1933009F4C1
:10F660006DC0913009F059C253C0913109F477C08F
:10F67000923108F0BBC0903109F04FC2F5C098310B
:10F6800009F487C0993150F4953109F4EFC09531F0
:10F6900008F4C6C1963109F040C2C2C19A3109F4DA
:10F6A0006CC09A3108F491C09B3109F45BC09D3164
:10F6B00009F033C29D81903359F48F81882311F46E
:10F6C0009EE11CC0813011F091E018C098E916C08D
:10F6D000892F807591F0903539F4E0E0F0E089E011
:10F6E0008093570094910AC0983539F4E3E0F0E034
:10F6F00089E080935700949101C090E01A821B82A8
:10F700008D818C831D829E831F8227E030E009C299
:10F710001A8288E08B8381E48C8386E58D8382E581
:10F720008E8389E48F8383E5888780E589878FE5E9
:10F730008A8782E38B872BE030E0F3C18A818139AD
:10F7400041F0823941F0803911F48FE005C080E04A
:10F7500003C082E001C08AE01A828B8344C0772410
:10F76000739482C08D81882311F48EE12CC0813086
:10F7700011F081E028C088E926C01A82E1E0F0E0BB
:10F7800089E08093570084918B831C8224E030E0D1
:10F79000C8C18B81803589F48C81883039F4E2E0EE
:10F7A000F0E089E08093570084910DC0E0E0F0E044
:10F7B00089E080935700849106C0E3E0F0E089E09F
:10F7C0008093570084911A82DFCF8D81836C99E0FA
:10F7D000E1E0F0E0082E90935700E89507B600FCB2
:10F7E000FDCF1A821B8223E030E09BC180EC8A832C
:10F7F000CE5CDE4F188219821A821B82C253D1401E
:10F800008EC18A8190E0A0E0B0E0582F44273327D2
:10F8100022278B8190E0A0E0B0E0DC0199278827C7
:10F82000282B392B4A2B5B2B8D8190E0A0E0B0E098
:10F83000282B392B4A2B5B2B8C8190E0A0E0B0E089
:10F84000BA2FA92F982F8827282B392B4A2B5B2BCF
:10F85000220F331F441F551FC05EDE4F288339839C
:10F860004A835B83C052D1401A8259C13A81C95C34
:10F87000DE4F3883C753D140CA5CDE4F1882C6536F
:10F88000D1408B81C82EDD24CA5CDE4F488159816E
:10F89000C653D140C42AD52A933109F082C0CE5C28
:10F8A000DE4F88819981AA81BB81C253D1408050AB
:10F8B000904CA340B04030F583E0CE5CDE4FE88052
:10F8C000F9800A811B81C253D140F70100935B008C
:10F8D00080935700E89507B600FCFDCFCE5CDE4F65
:10F8E000088119812A813B81C253D14000501F4FAA
:10F8F0002F4F3F4FCE5CDE4F088319832A833B8313
:10F90000C253D140C05EDE4F488159816A817B81FC
:10F91000C052D140DE011B9631E08C9111962C91A2
:10F9200011971296C75CDE4F2883C953D140C85C3B
:10F93000DE4F1882C853D14090E0C85CDE4FE881AA
:10F94000F981C853D1408E2B9F2B0C01FA01609393
:10F950005B0030935700E89511244E5F5F4F6F4F67
:10F960007F4F0EEFE02E0FEFF02ECE0CDF1CC114F8
:10F97000D10499F685E0C05EDE4F088119812A81A5
:10F980003B81C052D140F80120935B008093570027
:10F99000E89507B600FCFDCF81E180935700E8951C
:10F9A00035C0C05EDE4F88819981AA81BB81C0527B
:10F9B000D140B695A795979587957C018601ABE0D8
:10F9C000AA2EB12CAC0EBD1E0BC0D5016D915D01F0
:10F9D000C7010F947FFE0894E11CF11C01501040F8
:10F9E0000115110591F7A60160E070E0440F551F65
:10F9F000661F771FC05EDE4FE880F9800A811B8199
:10FA0000C052D1404E0D5F1D601F711F1A82C05E33
:10FA1000DE4F488359836A837B83C052D1407FC0C5
:10FA2000FA80C55CDE4FF882CB53D140C65CDE4F16
:10FA30001882CA53D1408B81C82EDD24C65CDE4FAC
:10FA400008811981CA53D140C02AD12A1A828981DA
:10FA5000BE016D5F7F4F843121F59601C05EDE4FA0
:10FA6000E880F9800A811B81C052D1400BBFF701A9
:10FA700087919691DB018C9311969C936E5F7F4FDB
:10FA8000D801C7010296A11DB11DC05EDE4F88835B
:10FA90009983AA83BB83C052D14022503040F1F6F3
:10FAA00036C0C05EDE4F288139814A815B81C052F9
:10FAB000D1400894C108D108760100E010E0089414
:10FAC000C11CD11C0894E11CF11C011D111DE20E8A
:10FAD000F31E041F151F21BDBB27A52F942F832FB5
:10FAE00082BD2F5F3F4F4F4F5F4FF89A80B5DB01CC
:10FAF0008D93BD012E153F054007510761F7C05E8C
:10FB0000DE4F288339834A835B83C052D1409601FC
:10FB10002D5F3F4FFB01108204C080EC8A8322E0FE
:10FB200030E08BE18093C6008091C00086FFFCCF5F
:10FB30008091C00080648093C000C15DDE4FF88179
:10FB4000CF52D140F093C6008091C00086FFFCCF19
:10FB50008091C00080648093C000432F3093C60022
:10FB60008091C00086FFFCCF8091C00080648093AC
:10FB7000C000922F2093C6008091C00086FFFCCF6A
:10FB80008091C00080648093C0008EE08093C600A6
:10FB90008091C00086FFFCCF8091C000806480937C
:10FBA000C00065E1C15DDE4FE880CF52D1406E25D7
:10FBB00069276427FE01319610C090819093C6009A
:10FBC0008091C00086FFFCCF31968091C000806498
:10FBD0008093C0006927215030402115310569F715
:10FBE0006093C6008091C00086FFFCCF8091C0006A
:10FBF00080648093C00085B1805885B9772081F4F6
:10FC0000C15DDE4F0881CF52D1400F5FC15DDE4F35
:10FC10000883CF52D14090E0A0E0B0E00D941AF4F8
:10FC200027982F9880E090E020ED37E0F901319798
:10FC3000F1F7019684369105C9F700008091C00064
:10FC40008D7F8093C00081E180935700E895EE2777
:10FC5000FF270994FFCF90E00D941AF497FB092E2B
:10FC600007260AD077FD04D02ED006D000201AF443
:10FC7000709561957F4F0895F6F7909581959F4F08
:10FC80000895A1E21A2EAA1BBB1BFD010DC0AA1FDD
:10FC9000BB1FEE1FFF1FA217B307E407F50720F0F5
:10FCA000A21BB30BE40BF50B661F771F881F991F70
:10FCB0001A9469F760957095809590959B01AC01B9
:10FCC000BD01CF010895AA1BBB1B51E107C0AA1FAC
:10FCD000BB1FA617B70710F0A61BB70B881F991FED
:10FCE0005A95A9F780959095BC01CD010895F99991
:10FCF000FECF92BD81BDF89A992780B50895262F31
:10FD0000F999FECF1FBA92BD81BD20BD0FB6F89400
:0EFD1000FA9AF99A0FBE01960895F894FFCF63
:00000001FF
